{
  "_format": "hh-sol-artifact-1",
  "contractName": "ClaimERC1155Test",
  "sourceName": "contracts/test/ClaimERC1155Test.sol",
  "abi": [
    {
      "inputs": [
        {
          "internalType": "contract IERC20",
          "name": "redeemableToken_",
          "type": "address"
        },
        {
          "internalType": "uint256[8]",
          "name": "tierValues_",
          "type": "uint256[8]"
        }
      ],
      "stateMutability": "nonpayable",
      "type": "constructor"
    },
    {
      "anonymous": false,
      "inputs": [
        {
          "indexed": true,
          "internalType": "address",
          "name": "account",
          "type": "address"
        },
        {
          "indexed": true,
          "internalType": "address",
          "name": "operator",
          "type": "address"
        },
        {
          "indexed": false,
          "internalType": "bool",
          "name": "approved",
          "type": "bool"
        }
      ],
      "name": "ApprovalForAll",
      "type": "event"
    },
    {
      "anonymous": false,
      "inputs": [
        {
          "indexed": true,
          "internalType": "address",
          "name": "account",
          "type": "address"
        },
        {
          "indexed": false,
          "internalType": "bytes",
          "name": "data_",
          "type": "bytes"
        }
      ],
      "name": "Claim",
      "type": "event"
    },
    {
      "anonymous": false,
      "inputs": [
        {
          "indexed": true,
          "internalType": "address",
          "name": "account",
          "type": "address"
        },
        {
          "indexed": true,
          "internalType": "enum ITier.Tier",
          "name": "startTier",
          "type": "uint8"
        },
        {
          "indexed": true,
          "internalType": "enum ITier.Tier",
          "name": "endTier",
          "type": "uint8"
        }
      ],
      "name": "TierChange",
      "type": "event"
    },
    {
      "anonymous": false,
      "inputs": [
        {
          "indexed": true,
          "internalType": "address",
          "name": "operator",
          "type": "address"
        },
        {
          "indexed": true,
          "internalType": "address",
          "name": "from",
          "type": "address"
        },
        {
          "indexed": true,
          "internalType": "address",
          "name": "to",
          "type": "address"
        },
        {
          "indexed": false,
          "internalType": "uint256[]",
          "name": "ids",
          "type": "uint256[]"
        },
        {
          "indexed": false,
          "internalType": "uint256[]",
          "name": "values",
          "type": "uint256[]"
        }
      ],
      "name": "TransferBatch",
      "type": "event"
    },
    {
      "anonymous": false,
      "inputs": [
        {
          "indexed": true,
          "internalType": "address",
          "name": "operator",
          "type": "address"
        },
        {
          "indexed": true,
          "internalType": "address",
          "name": "from",
          "type": "address"
        },
        {
          "indexed": true,
          "internalType": "address",
          "name": "to",
          "type": "address"
        },
        {
          "indexed": false,
          "internalType": "uint256",
          "name": "id",
          "type": "uint256"
        },
        {
          "indexed": false,
          "internalType": "uint256",
          "name": "value",
          "type": "uint256"
        }
      ],
      "name": "TransferSingle",
      "type": "event"
    },
    {
      "anonymous": false,
      "inputs": [
        {
          "indexed": false,
          "internalType": "string",
          "name": "value",
          "type": "string"
        },
        {
          "indexed": true,
          "internalType": "uint256",
          "name": "id",
          "type": "uint256"
        }
      ],
      "name": "URI",
      "type": "event"
    },
    {
      "inputs": [],
      "name": "ART",
      "outputs": [
        {
          "internalType": "uint256",
          "name": "",
          "type": "uint256"
        }
      ],
      "stateMutability": "view",
      "type": "function"
    },
    {
      "inputs": [],
      "name": "GOOD_ART",
      "outputs": [
        {
          "internalType": "uint256",
          "name": "",
          "type": "uint256"
        }
      ],
      "stateMutability": "view",
      "type": "function"
    },
    {
      "inputs": [
        {
          "internalType": "address",
          "name": "account",
          "type": "address"
        },
        {
          "internalType": "uint256",
          "name": "id",
          "type": "uint256"
        }
      ],
      "name": "balanceOf",
      "outputs": [
        {
          "internalType": "uint256",
          "name": "",
          "type": "uint256"
        }
      ],
      "stateMutability": "view",
      "type": "function"
    },
    {
      "inputs": [
        {
          "internalType": "address[]",
          "name": "accounts",
          "type": "address[]"
        },
        {
          "internalType": "uint256[]",
          "name": "ids",
          "type": "uint256[]"
        }
      ],
      "name": "balanceOfBatch",
      "outputs": [
        {
          "internalType": "uint256[]",
          "name": "",
          "type": "uint256[]"
        }
      ],
      "stateMutability": "view",
      "type": "function"
    },
    {
      "inputs": [
        {
          "internalType": "address",
          "name": "account_",
          "type": "address"
        },
        {
          "internalType": "bytes",
          "name": "data_",
          "type": "bytes"
        }
      ],
      "name": "claim",
      "outputs": [],
      "stateMutability": "nonpayable",
      "type": "function"
    },
    {
      "inputs": [
        {
          "internalType": "address",
          "name": "",
          "type": "address"
        }
      ],
      "name": "claims",
      "outputs": [
        {
          "internalType": "bool",
          "name": "",
          "type": "bool"
        }
      ],
      "stateMutability": "view",
      "type": "function"
    },
    {
      "inputs": [],
      "name": "constructionBlock",
      "outputs": [
        {
          "internalType": "uint256",
          "name": "",
          "type": "uint256"
        }
      ],
      "stateMutability": "view",
      "type": "function"
    },
    {
      "inputs": [],
      "name": "erc20",
      "outputs": [
        {
          "internalType": "contract IERC20",
          "name": "",
          "type": "address"
        }
      ],
      "stateMutability": "view",
      "type": "function"
    },
    {
      "inputs": [
        {
          "internalType": "address",
          "name": "account",
          "type": "address"
        },
        {
          "internalType": "address",
          "name": "operator",
          "type": "address"
        }
      ],
      "name": "isApprovedForAll",
      "outputs": [
        {
          "internalType": "bool",
          "name": "",
          "type": "bool"
        }
      ],
      "stateMutability": "view",
      "type": "function"
    },
    {
      "inputs": [
        {
          "internalType": "address",
          "name": "account_",
          "type": "address"
        },
        {
          "internalType": "enum ITier.Tier",
          "name": "minimumTier_",
          "type": "uint8"
        }
      ],
      "name": "isTier",
      "outputs": [
        {
          "internalType": "bool",
          "name": "",
          "type": "bool"
        }
      ],
      "stateMutability": "view",
      "type": "function"
    },
    {
      "inputs": [],
      "name": "minimumTier",
      "outputs": [
        {
          "internalType": "enum ITier.Tier",
          "name": "",
          "type": "uint8"
        }
      ],
      "stateMutability": "view",
      "type": "function"
    },
    {
      "inputs": [
        {
          "internalType": "address",
          "name": "account_",
          "type": "address"
        }
      ],
      "name": "report",
      "outputs": [
        {
          "internalType": "uint256",
          "name": "",
          "type": "uint256"
        }
      ],
      "stateMutability": "view",
      "type": "function"
    },
    {
      "inputs": [
        {
          "internalType": "address",
          "name": "from",
          "type": "address"
        },
        {
          "internalType": "address",
          "name": "to",
          "type": "address"
        },
        {
          "internalType": "uint256[]",
          "name": "ids",
          "type": "uint256[]"
        },
        {
          "internalType": "uint256[]",
          "name": "amounts",
          "type": "uint256[]"
        },
        {
          "internalType": "bytes",
          "name": "data",
          "type": "bytes"
        }
      ],
      "name": "safeBatchTransferFrom",
      "outputs": [],
      "stateMutability": "nonpayable",
      "type": "function"
    },
    {
      "inputs": [
        {
          "internalType": "address",
          "name": "from",
          "type": "address"
        },
        {
          "internalType": "address",
          "name": "to",
          "type": "address"
        },
        {
          "internalType": "uint256",
          "name": "id",
          "type": "uint256"
        },
        {
          "internalType": "uint256",
          "name": "amount",
          "type": "uint256"
        },
        {
          "internalType": "bytes",
          "name": "data",
          "type": "bytes"
        }
      ],
      "name": "safeTransferFrom",
      "outputs": [],
      "stateMutability": "nonpayable",
      "type": "function"
    },
    {
      "inputs": [
        {
          "internalType": "address",
          "name": "operator",
          "type": "address"
        },
        {
          "internalType": "bool",
          "name": "approved",
          "type": "bool"
        }
      ],
      "name": "setApprovalForAll",
      "outputs": [],
      "stateMutability": "nonpayable",
      "type": "function"
    },
    {
      "inputs": [
        {
          "internalType": "address",
          "name": "",
          "type": "address"
        },
        {
          "internalType": "enum ITier.Tier",
          "name": "",
          "type": "uint8"
        },
        {
          "internalType": "bytes",
          "name": "",
          "type": "bytes"
        }
      ],
      "name": "setTier",
      "outputs": [],
      "stateMutability": "nonpayable",
      "type": "function"
    },
    {
      "inputs": [
        {
          "internalType": "bytes4",
          "name": "interfaceId",
          "type": "bytes4"
        }
      ],
      "name": "supportsInterface",
      "outputs": [
        {
          "internalType": "bool",
          "name": "",
          "type": "bool"
        }
      ],
      "stateMutability": "view",
      "type": "function"
    },
    {
      "inputs": [],
      "name": "tierContract",
      "outputs": [
        {
          "internalType": "contract ITier",
          "name": "",
          "type": "address"
        }
      ],
      "stateMutability": "view",
      "type": "function"
    },
    {
      "inputs": [],
      "name": "tierValues",
      "outputs": [
        {
          "internalType": "uint256[8]",
          "name": "tierValues_",
          "type": "uint256[8]"
        }
      ],
      "stateMutability": "view",
      "type": "function"
    },
    {
      "inputs": [
        {
          "internalType": "uint256",
          "name": "",
          "type": "uint256"
        }
      ],
      "name": "uri",
      "outputs": [
        {
          "internalType": "string",
          "name": "",
          "type": "string"
        }
      ],
      "stateMutability": "view",
      "type": "function"
    }
  ],
  "bytecode": "0x6102006040523480156200001257600080fd5b5060405162002cc538038062002cc583398181016040526101208110156200003957600080fd5b508051604080518082018252601d81527f68747470733a2f2f6578616d706c652e636f6d2f7b69647d2e6a736f6e0000006020808301919091528401805160809081529285015160a090815260608087015160c09081529487015160e090815291870151610100908152948701516101205290860151610140529290940151610160526001600160601b031983831b8116610180523090921b9091166101a052436101c052600360f81b6101e052909190620000fc6301ffc9a760e01b62000134565b6200010781620001bc565b62000119636cdb3d1360e11b62000134565b6200012b6303a24d0760e21b62000134565b50505062000271565b6001600160e01b0319808216141562000194576040805162461bcd60e51b815260206004820152601c60248201527f4552433136353a20696e76616c696420696e7465726661636520696400000000604482015290519081900360640190fd5b6001600160e01b0319166000908152600160208190526040909120805460ff19169091179055565b8051620001d1906004906020840190620001d5565b5050565b828054600181600116156101000203166002900490600052602060002090601f016020900481019282601f106200021857805160ff191683800117855562000248565b8280016001018555821562000248579182015b82811115620002485782518255916020019190600101906200022b565b50620002569291506200025a565b5090565b5b808211156200025657600081556001016200025b565b60805160a05160c05160e051610100516101205161014051610160516101805160601c6101a05160601c6101c0516101e05160f81c6129ac620003196000398061151952806118de525080610bbf528061131f52508061126652806114cd528061169352508061134952806117e65250806112375250806112115250806111eb5250806111c552508061119f52508061117952508061115352508061113052506129ac6000f3fe608060405234801561001057600080fd5b506004361061016b5760003560e01c8063785e9e86116100cd578063c6788bdd11610081578063e985e9c511610066578063e985e9c5146108ea578063f1ebd5dd14610925578063f242432a1461094e5761016b565b8063c6788bdd14610884578063e053ea31146108b75761016b565b8063a22cb465116100b2578063a22cb4651461077e578063a30872db146107b9578063bb1757cf146107c15761016b565b8063785e9e86146107455780639cb84a01146107765761016b565b80633acf301b1161012457806352dab69d1161010957806352dab69d146105fd57806370230b39146106c857806377544f33146107095761016b565b80633acf301b1461047e5780634e1273f4146104865761016b565b80630e89341c116101555780630e89341c1461020e5780630f0af57f146102a05780632eb2c2d6146102a85761016b565b8062fdd58e1461017057806301ffc9a7146101bb575b600080fd5b6101a96004803603604081101561018657600080fd5b5073ffffffffffffffffffffffffffffffffffffffff8135169060200135610a26565b60408051918252519081900360200190f35b6101fa600480360360208110156101d157600080fd5b50357fffffffff0000000000000000000000000000000000000000000000000000000016610acc565b604080519115158252519081900360200190f35b61022b6004803603602081101561022457600080fd5b5035610b07565b6040805160208082528351818301528351919283929083019185019080838360005b8381101561026557818101518382015260200161024d565b50505050905090810190601f1680156102925780820380516001836020036101000a031916815260200191505b509250505060405180910390f35b6101a9610bbd565b61047c600480360360a08110156102be57600080fd5b73ffffffffffffffffffffffffffffffffffffffff82358116926020810135909116918101906060810160408201356401000000008111156102ff57600080fd5b82018360208201111561031157600080fd5b8035906020019184602083028401116401000000008311171561033357600080fd5b919080806020026020016040519081016040528093929190818152602001838360200280828437600092019190915250929594936020810193503591505064010000000081111561038357600080fd5b82018360208201111561039557600080fd5b803590602001918460208302840111640100000000831117156103b757600080fd5b919080806020026020016040519081016040528093929190818152602001838360200280828437600092019190915250929594936020810193503591505064010000000081111561040757600080fd5b82018360208201111561041957600080fd5b8035906020019184600183028401116401000000008311171561043b57600080fd5b91908080601f016020809104026020016040519081016040528093929190818152602001838380828437600092019190915250929550610be1945050505050565b005b6101a9610fb4565b6105ad6004803603604081101561049c57600080fd5b8101906020810181356401000000008111156104b757600080fd5b8201836020820111156104c957600080fd5b803590602001918460208302840111640100000000831117156104eb57600080fd5b919080806020026020016040519081016040528093929190818152602001838360200280828437600092019190915250929594936020810193503591505064010000000081111561053b57600080fd5b82018360208201111561054d57600080fd5b8035906020019184602083028401116401000000008311171561056f57600080fd5b919080806020026020016040519081016040528093929190818152602001838360200280828437600092019190915250929550610fb9945050505050565b60408051602080825283518183015283519192839290830191858101910280838360005b838110156105e95781810151838201526020016105d1565b505050509050019250505060405180910390f35b61047c6004803603606081101561061357600080fd5b73ffffffffffffffffffffffffffffffffffffffff8235169160ff6020820135169181019060608101604082013564010000000081111561065357600080fd5b82018360208201111561066557600080fd5b8035906020019184600183028401116401000000008311171561068757600080fd5b91908080601f0160208091040260200160405190810160405280939291908181526020018383808284376000920191909152509295506110bf945050505050565b6106d0611126565b604051808261010080838360005b838110156106f65781810151838201526020016106de565b5050505090500191505060405180910390f35b6101fa6004803603604081101561071f57600080fd5b50803573ffffffffffffffffffffffffffffffffffffffff16906020013560ff1661125f565b61074d611347565b6040805173ffffffffffffffffffffffffffffffffffffffff9092168252519081900360200190f35b6101a961136b565b61047c6004803603604081101561079457600080fd5b5073ffffffffffffffffffffffffffffffffffffffff81351690602001351515611370565b61074d6114cb565b61047c600480360360408110156107d757600080fd5b73ffffffffffffffffffffffffffffffffffffffff823516919081019060408101602082013564010000000081111561080f57600080fd5b82018360208201111561082157600080fd5b8035906020019184600183028401116401000000008311171561084357600080fd5b91908080601f0160208091040260200160405190810160405280939291908181526020018383808284376000920191909152509295506114ef945050505050565b6101fa6004803603602081101561089a57600080fd5b503573ffffffffffffffffffffffffffffffffffffffff166117c5565b6101a9600480360360208110156108cd57600080fd5b503573ffffffffffffffffffffffffffffffffffffffff166117da565b6101fa6004803603604081101561090057600080fd5b5073ffffffffffffffffffffffffffffffffffffffff813581169160200135166118a1565b61092d6118dc565b6040518082600881111561093d57fe5b815260200191505060405180910390f35b61047c600480360360a081101561096457600080fd5b73ffffffffffffffffffffffffffffffffffffffff823581169260208101359091169160408201359160608101359181019060a0810160808201356401000000008111156109b157600080fd5b8201836020820111156109c357600080fd5b803590602001918460018302840111640100000000831117156109e557600080fd5b91908080601f016020809104026020016040519081016040528093929190818152602001838380828437600092019190915250929550611900945050505050565b600073ffffffffffffffffffffffffffffffffffffffff8316610a94576040517f08c379a000000000000000000000000000000000000000000000000000000000815260040180806020018281038252602b815260200180612807602b913960400191505060405180910390fd5b50600081815260026020908152604080832073ffffffffffffffffffffffffffffffffffffffff861684529091529020545b92915050565b7fffffffff00000000000000000000000000000000000000000000000000000000811660009081526001602052604090205460ff165b919050565b60048054604080516020601f60027fffffffffffffffffffffffffffffffffffffffffffffffffffffffffffffffff610100600188161502019095169490940493840181900481028201810190925282815260609390929091830182828015610bb15780601f10610b8657610100808354040283529160200191610bb1565b820191906000526020600020905b815481529060010190602001808311610b9457829003601f168201915b50505050509050919050565b7f000000000000000000000000000000000000000000000000000000000000000081565b8151835114610c3b576040517f08c379a000000000000000000000000000000000000000000000000000000000815260040180806020018281038252602881526020018061292e6028913960400191505060405180910390fd5b73ffffffffffffffffffffffffffffffffffffffff8416610ca7576040517f08c379a000000000000000000000000000000000000000000000000000000000815260040180806020018281038252602581526020018061285b6025913960400191505060405180910390fd5b610caf611b4d565b73ffffffffffffffffffffffffffffffffffffffff168573ffffffffffffffffffffffffffffffffffffffff161480610cf45750610cf485610cef611b4d565b6118a1565b610d49576040517f08c379a00000000000000000000000000000000000000000000000000000000081526004018080602001828103825260328152602001806128806032913960400191505060405180910390fd5b6000610d53611b4d565b9050610d63818787878787610fac565b60005b8451811015610e9d576000858281518110610d7d57fe5b602002602001015190506000858381518110610d9557fe5b60200260200101519050610e1c816040518060600160405280602a81526020016128b2602a91396002600086815260200190815260200160002060008d73ffffffffffffffffffffffffffffffffffffffff1673ffffffffffffffffffffffffffffffffffffffff16815260200190815260200160002054611b519092919063ffffffff16565b600083815260026020908152604080832073ffffffffffffffffffffffffffffffffffffffff8e811685529252808320939093558a1681522054610e609082611c02565b600092835260026020908152604080852073ffffffffffffffffffffffffffffffffffffffff8c1686529091529092209190915550600101610d66565b508473ffffffffffffffffffffffffffffffffffffffff168673ffffffffffffffffffffffffffffffffffffffff168273ffffffffffffffffffffffffffffffffffffffff167f4a39dc06d4c0dbc64b70af90fd698a233a518aa5d07e595d983b8c0526c8f7fb8787604051808060200180602001838103835285818151815260200191508051906020019060200280838360005b83811015610f4a578181015183820152602001610f32565b50505050905001838103825284818151815260200191508051906020019060200280838360005b83811015610f89578181015183820152602001610f71565b5050505090500194505050505060405180910390a4610fac818787878787611c7d565b505050505050565b600181565b60608151835114611015576040517f08c379a00000000000000000000000000000000000000000000000000000000081526004018080602001828103825260298152602001806129056029913960400191505060405180910390fd5b6060835167ffffffffffffffff8111801561102f57600080fd5b50604051908082528060200260200182016040528015611059578160200160208202803683370190505b50905060005b84518110156110b75761109885828151811061107757fe5b602002602001015185838151811061108b57fe5b6020026020010151610a26565b8282815181106110a457fe5b602090810291909101015260010161105f565b509392505050565b604080517f08c379a000000000000000000000000000000000000000000000000000000000815260206004820152600860248201527f5345545f54494552000000000000000000000000000000000000000000000000604482015290519081900360640190fd5b61112e6126a4565b7f000000000000000000000000000000000000000000000000000000000000000081527f000000000000000000000000000000000000000000000000000000000000000060208201527f000000000000000000000000000000000000000000000000000000000000000060408201527f000000000000000000000000000000000000000000000000000000000000000060608201527f000000000000000000000000000000000000000000000000000000000000000060808201527f000000000000000000000000000000000000000000000000000000000000000060a08201527f000000000000000000000000000000000000000000000000000000000000000060c08201527f000000000000000000000000000000000000000000000000000000000000000060e08201525b90565b600061131d7f000000000000000000000000000000000000000000000000000000000000000073ffffffffffffffffffffffffffffffffffffffff1663e053ea31856040518263ffffffff1660e01b8152600401808273ffffffffffffffffffffffffffffffffffffffff16815260200191505060206040518083038186803b1580156112eb57600080fd5b505afa1580156112ff573d6000803e3d6000fd5b505050506040513d602081101561131557600080fd5b505183611faf565b7f000000000000000000000000000000000000000000000000000000000000000010159392505050565b7f000000000000000000000000000000000000000000000000000000000000000081565b600081565b8173ffffffffffffffffffffffffffffffffffffffff1661138f611b4d565b73ffffffffffffffffffffffffffffffffffffffff1614156113fc576040517f08c379a00000000000000000000000000000000000000000000000000000000081526004018080602001828103825260298152602001806128dc6029913960400191505060405180910390fd5b8060036000611409611b4d565b73ffffffffffffffffffffffffffffffffffffffff90811682526020808301939093526040918201600090812091871680825291909352912080547fffffffffffffffffffffffffffffffffffffffffffffffffffffffffffffff001692151592909217909155611478611b4d565b73ffffffffffffffffffffffffffffffffffffffff167f17307eab39ab6107e8899845ad3d59bd9653f200f220920489ca2b5937696c318360405180821515815260200191505060405180910390a35050565b7f000000000000000000000000000000000000000000000000000000000000000081565b73ffffffffffffffffffffffffffffffffffffffff821660009081526020819052604090205482907f00000000000000000000000000000000000000000000000000000000000000009060ff16156115a857604080517f08c379a000000000000000000000000000000000000000000000000000000000815260206004820152600f60248201527f4455504c49434154455f434c41494d0000000000000000000000000000000000604482015290519081900360640190fd5b73ffffffffffffffffffffffffffffffffffffffff841660008181526020818152604080832080547fffffffffffffffffffffffffffffffffffffffffffffffffffffffffffffff00166001179055805182815287518184015287517fa16751aa65ef03fb7261c0a125a84854295c191657bda7151d4396246b1bbeb49489949293849390840192908601918190849084905b8381101561165357818101518382015260200161163b565b50505050905090810190601f1680156116805780820380516001836020036101000a031916815260200191505b509250505060405180910390a261174a847f000000000000000000000000000000000000000000000000000000000000000073ffffffffffffffffffffffffffffffffffffffff1663e053ea31876040518263ffffffff1660e01b8152600401808273ffffffffffffffffffffffffffffffffffffffff16815260200191505060206040518083038186803b15801561171857600080fd5b505afa15801561172c573d6000803e3d6000fd5b505050506040513d602081101561174257600080fd5b505185611ff5565b611754828261125f565b6117bf57604080517f08c379a000000000000000000000000000000000000000000000000000000000815260206004820152600c60248201527f4d494e494d554d5f544945520000000000000000000000000000000000000000604482015290519081900360640190fd5b50505050565b60006020819052908152604090205460ff1681565b6000610ac6600061189c7f000000000000000000000000000000000000000000000000000000000000000073ffffffffffffffffffffffffffffffffffffffff166370a08231866040518263ffffffff1660e01b8152600401808273ffffffffffffffffffffffffffffffffffffffff16815260200191505060206040518083038186803b15801561186b57600080fd5b505afa15801561187f573d6000803e3d6000fd5b505050506040513d602081101561189557600080fd5b50516120ef565b612140565b73ffffffffffffffffffffffffffffffffffffffff918216600090815260036020908152604080832093909416825291909152205460ff1690565b7f000000000000000000000000000000000000000000000000000000000000000081565b73ffffffffffffffffffffffffffffffffffffffff841661196c576040517f08c379a000000000000000000000000000000000000000000000000000000000815260040180806020018281038252602581526020018061285b6025913960400191505060405180910390fd5b611974611b4d565b73ffffffffffffffffffffffffffffffffffffffff168573ffffffffffffffffffffffffffffffffffffffff1614806119b457506119b485610cef611b4d565b611a09576040517f08c379a00000000000000000000000000000000000000000000000000000000081526004018080602001828103825260298152602001806128326029913960400191505060405180910390fd5b6000611a13611b4d565b9050611a33818787611a2488612186565b611a2d88612186565b87610fac565b611a87836040518060600160405280602a81526020016128b2602a9139600087815260026020908152604080832073ffffffffffffffffffffffffffffffffffffffff8d1684529091529020549190611b51565b600085815260026020908152604080832073ffffffffffffffffffffffffffffffffffffffff8b81168552925280832093909355871681522054611acb9084611c02565b600085815260026020908152604080832073ffffffffffffffffffffffffffffffffffffffff808b168086529184529382902094909455805188815291820187905280518a8416938616927fc3d58168c5ae7397731d063d5bbf3d657854427343f4c083240f7aacaa2d0f6292908290030190a4610fac8187878787876121ca565b3390565b60008184841115611bfa576040517f08c379a00000000000000000000000000000000000000000000000000000000081526004018080602001828103825283818151815260200191508051906020019080838360005b83811015611bbf578181015183820152602001611ba7565b50505050905090810190601f168015611bec5780820380516001836020036101000a031916815260200191505b509250505060405180910390fd5b505050900390565b600082820183811015611c7657604080517f08c379a000000000000000000000000000000000000000000000000000000000815260206004820152601b60248201527f536166654d6174683a206164646974696f6e206f766572666c6f770000000000604482015290519081900360640190fd5b9392505050565b611c9c8473ffffffffffffffffffffffffffffffffffffffff166123ba565b15610fac578373ffffffffffffffffffffffffffffffffffffffff1663bc197c8187878686866040518663ffffffff1660e01b8152600401808673ffffffffffffffffffffffffffffffffffffffff1681526020018573ffffffffffffffffffffffffffffffffffffffff168152602001806020018060200180602001848103845287818151815260200191508051906020019060200280838360005b83811015611d51578181015183820152602001611d39565b50505050905001848103835286818151815260200191508051906020019060200280838360005b83811015611d90578181015183820152602001611d78565b50505050905001848103825285818151815260200191508051906020019080838360005b83811015611dcc578181015183820152602001611db4565b50505050905090810190601f168015611df95780820380516001836020036101000a031916815260200191505b5098505050505050505050602060405180830381600087803b158015611e1e57600080fd5b505af1925050508015611e4357506040513d6020811015611e3e57600080fd5b505160015b611f0c57611e4f6126c9565b80611e5a5750611ebb565b6040517f08c379a0000000000000000000000000000000000000000000000000000000008152602060048201818152835160248401528351849391928392604401919085019080838360008315611bbf578181015183820152602001611ba7565b6040517f08c379a00000000000000000000000000000000000000000000000000000000081526004018080602001828103825260348152602001806127ab6034913960400191505060405180910390fd5b7fffffffff0000000000000000000000000000000000000000000000000000000081167fbc197c810000000000000000000000000000000000000000000000000000000014611fa6576040517f08c379a00000000000000000000000000000000000000000000000000000000081526004018080602001828103825260288152602001806127df6028913960400191505060405180910390fd5b50505050505050565b600080826008811115611fbe57fe5b1415611fcc57506000610ac6565b60006001836008811115611fdc57fe5b0360200290508084901c63ffffffff1691505092915050565b600061200284600561125f565b6040805160028082526060808301845293945090916020830190803683375050604080516002808252606080830184529495509092509060208301908036833701905050905060008260008151811061205757fe5b60200260200101818152505060018260018151811061207257fe5b6020026020010181815250508261208a57600161208d565b60025b60ff168160008151811061209d57fe5b602002602001018181525050826120b55760006120b8565b60015b60ff16816001815181106120c857fe5b602002602001018181525050610fac868383604051806020016040528060008152506123c0565b6000805b600881101561213757612104611126565b816008811061210f57fe5b602002015183101561212f5780600881111561212757fe5b915050610b02565b6001016120f3565b50600892915050565b60008082600881111561214f57fe5b7fffffffffffffffffffffffffffffffffffffffffffffffffffffffffffffffff60209190910290811c901b841791505092915050565b6040805160018082528183019092526060918291906020808301908036833701905050905082816000815181106121b957fe5b602090810291909101015292915050565b6121e98473ffffffffffffffffffffffffffffffffffffffff166123ba565b15610fac578373ffffffffffffffffffffffffffffffffffffffff1663f23a6e6187878686866040518663ffffffff1660e01b8152600401808673ffffffffffffffffffffffffffffffffffffffff1681526020018573ffffffffffffffffffffffffffffffffffffffff16815260200184815260200183815260200180602001828103825283818151815260200191508051906020019080838360005b8381101561229f578181015183820152602001612287565b50505050905090810190601f1680156122cc5780820380516001836020036101000a031916815260200191505b509650505050505050602060405180830381600087803b1580156122ef57600080fd5b505af192505050801561231457506040513d602081101561230f57600080fd5b505160015b61232057611e4f6126c9565b7fffffffff0000000000000000000000000000000000000000000000000000000081167ff23a6e610000000000000000000000000000000000000000000000000000000014611fa6576040517f08c379a00000000000000000000000000000000000000000000000000000000081526004018080602001828103825260288152602001806127df6028913960400191505060405180910390fd5b3b151590565b73ffffffffffffffffffffffffffffffffffffffff841661242c576040517f08c379a00000000000000000000000000000000000000000000000000000000081526004018080602001828103825260218152602001806129566021913960400191505060405180910390fd5b8151835114612486576040517f08c379a000000000000000000000000000000000000000000000000000000000815260040180806020018281038252602881526020018061292e6028913960400191505060405180910390fd5b6000612490611b4d565b90506124a181600087878787610fac565b60005b845181101561258c57612536600260008784815181106124c057fe5b6020026020010151815260200190815260200160002060008873ffffffffffffffffffffffffffffffffffffffff1673ffffffffffffffffffffffffffffffffffffffff1681526020019081526020016000205485838151811061252057fe5b6020026020010151611c0290919063ffffffff16565b6002600087848151811061254657fe5b6020908102919091018101518252818101929092526040908101600090812073ffffffffffffffffffffffffffffffffffffffff8b1682529092529020556001016124a4565b508473ffffffffffffffffffffffffffffffffffffffff16600073ffffffffffffffffffffffffffffffffffffffff168273ffffffffffffffffffffffffffffffffffffffff167f4a39dc06d4c0dbc64b70af90fd698a233a518aa5d07e595d983b8c0526c8f7fb8787604051808060200180602001838103835285818151815260200191508051906020019060200280838360005b8381101561263a578181015183820152602001612622565b50505050905001838103825284818151815260200191508051906020019060200280838360005b83811015612679578181015183820152602001612661565b5050505090500194505050505060405180910390a461269d81600087878787611c7d565b5050505050565b6040518061010001604052806008906020820280368337509192915050565b60e01c90565b600060443d10156126d95761125c565b600481823e6308c379a06126ed82516126c3565b146126f75761125c565b6040517ffffffffffffffffffffffffffffffffffffffffffffffffffffffffffffffffc3d016004823e80513d67ffffffffffffffff8160248401118184111715612745575050505061125c565b8284019250825191508082111561275f575050505061125c565b503d830160208284010111156127775750505061125c565b601f017fffffffffffffffffffffffffffffffffffffffffffffffffffffffffffffffe01681016020016040529150509056fe455243313135353a207472616e7366657220746f206e6f6e2045524331313535526563656976657220696d706c656d656e746572455243313135353a204552433131353552656365697665722072656a656374656420746f6b656e73455243313135353a2062616c616e636520717565727920666f7220746865207a65726f2061646472657373455243313135353a2063616c6c6572206973206e6f74206f776e6572206e6f7220617070726f766564455243313135353a207472616e7366657220746f20746865207a65726f2061646472657373455243313135353a207472616e736665722063616c6c6572206973206e6f74206f776e6572206e6f7220617070726f766564455243313135353a20696e73756666696369656e742062616c616e636520666f72207472616e73666572455243313135353a2073657474696e6720617070726f76616c2073746174757320666f722073656c66455243313135353a206163636f756e747320616e6420696473206c656e677468206d69736d61746368455243313135353a2069647320616e6420616d6f756e7473206c656e677468206d69736d61746368455243313135353a206d696e7420746f20746865207a65726f2061646472657373a26469706673582212200b19afb84b06f8f1a206fadc2e3610fada7d38e685e7bcaa84dd6faf2425848764736f6c634300060c0033",
  "linkReferences": {},
  "deployedLinkReferences": {}
}