{
  "_format": "hh-sol-artifact-1",
  "contractName": "TierByConstruction",
  "sourceName": "contracts/tier/TierByConstruction.sol",
  "abi": [
    {
      "inputs": [
        {
          "internalType": "contract ITier",
          "name": "tierContract_",
          "type": "address"
        }
      ],
      "stateMutability": "nonpayable",
      "type": "constructor"
    },
    {
      "inputs": [],
      "name": "constructionBlock",
      "outputs": [
        {
          "internalType": "uint256",
          "name": "",
          "type": "uint256"
        }
      ],
      "stateMutability": "view",
      "type": "function"
    },
    {
      "inputs": [
        {
          "internalType": "address",
          "name": "account_",
          "type": "address"
        },
        {
          "internalType": "enum ITier.Tier",
          "name": "minimumTier_",
          "type": "uint8"
        }
      ],
      "name": "isTier",
      "outputs": [
        {
          "internalType": "bool",
          "name": "",
          "type": "bool"
        }
      ],
      "stateMutability": "view",
      "type": "function"
    },
    {
      "inputs": [],
      "name": "tierContract",
      "outputs": [
        {
          "internalType": "contract ITier",
          "name": "",
          "type": "address"
        }
      ],
      "stateMutability": "view",
      "type": "function"
    }
  ],
  "bytecode": "0x60c060405234801561001057600080fd5b5060405161030a38038061030a8339818101604052602081101561003357600080fd5b50516001600160601b031960609190911b166080524360a05260805160601c60a05161028f61007b6000398060e352806101c552508061010c52806101f1525061028f6000f3fe608060405234801561001057600080fd5b50600436106100415760003560e01c80630f0af57f1461004657806377544f3314610060578063a30872db146100b0575b600080fd5b61004e6100e1565b60408051918252519081900360200190f35b61009c6004803603604081101561007657600080fd5b50803573ffffffffffffffffffffffffffffffffffffffff16906020013560ff16610105565b604080519115158252519081900360200190f35b6100b86101ef565b6040805173ffffffffffffffffffffffffffffffffffffffff9092168252519081900360200190f35b7f000000000000000000000000000000000000000000000000000000000000000081565b60006101c37f000000000000000000000000000000000000000000000000000000000000000073ffffffffffffffffffffffffffffffffffffffff1663e053ea31856040518263ffffffff1660e01b8152600401808273ffffffffffffffffffffffffffffffffffffffff16815260200191505060206040518083038186803b15801561019157600080fd5b505afa1580156101a5573d6000803e3d6000fd5b505050506040513d60208110156101bb57600080fd5b505183610213565b7f0000000000000000000000000000000000000000000000000000000000000000101590505b92915050565b7f000000000000000000000000000000000000000000000000000000000000000081565b60008082600881111561022257fe5b1415610230575060006101e9565b6000600183600881111561024057fe5b0360200290508084901c63ffffffff169150509291505056fea2646970667358221220b89d56ce8db58bd83055719094673893a6522b7a767ef101167ef4df34ff008664736f6c634300060c0033",
  "linkReferences": {},
  "deployedLinkReferences": {}
}