{
  "_format": "hh-sol-artifact-1",
  "contractName": "TierByConstructionClaim",
  "sourceName": "contracts/claim/TierByConstructionClaim.sol",
  "abi": [
    {
      "inputs": [
        {
          "internalType": "contract ITier",
          "name": "tierContract_",
          "type": "address"
        },
        {
          "internalType": "enum ITier.Tier",
          "name": "minimumTier_",
          "type": "uint8"
        }
      ],
      "stateMutability": "nonpayable",
      "type": "constructor"
    },
    {
      "anonymous": false,
      "inputs": [
        {
          "indexed": true,
          "internalType": "address",
          "name": "account",
          "type": "address"
        },
        {
          "indexed": false,
          "internalType": "bytes",
          "name": "data_",
          "type": "bytes"
        }
      ],
      "name": "Claim",
      "type": "event"
    },
    {
      "inputs": [
        {
          "internalType": "address",
          "name": "account_",
          "type": "address"
        },
        {
          "internalType": "bytes",
          "name": "data_",
          "type": "bytes"
        }
      ],
      "name": "claim",
      "outputs": [],
      "stateMutability": "nonpayable",
      "type": "function"
    },
    {
      "inputs": [
        {
          "internalType": "address",
          "name": "",
          "type": "address"
        }
      ],
      "name": "claims",
      "outputs": [
        {
          "internalType": "bool",
          "name": "",
          "type": "bool"
        }
      ],
      "stateMutability": "view",
      "type": "function"
    },
    {
      "inputs": [],
      "name": "constructionBlock",
      "outputs": [
        {
          "internalType": "uint256",
          "name": "",
          "type": "uint256"
        }
      ],
      "stateMutability": "view",
      "type": "function"
    },
    {
      "inputs": [
        {
          "internalType": "address",
          "name": "account_",
          "type": "address"
        },
        {
          "internalType": "enum ITier.Tier",
          "name": "minimumTier_",
          "type": "uint8"
        }
      ],
      "name": "isTier",
      "outputs": [
        {
          "internalType": "bool",
          "name": "",
          "type": "bool"
        }
      ],
      "stateMutability": "view",
      "type": "function"
    },
    {
      "inputs": [],
      "name": "minimumTier",
      "outputs": [
        {
          "internalType": "enum ITier.Tier",
          "name": "",
          "type": "uint8"
        }
      ],
      "stateMutability": "view",
      "type": "function"
    },
    {
      "inputs": [],
      "name": "tierContract",
      "outputs": [
        {
          "internalType": "contract ITier",
          "name": "",
          "type": "address"
        }
      ],
      "stateMutability": "view",
      "type": "function"
    }
  ],
  "bytecode": "0x60e060405234801561001057600080fd5b506040516107af3803806107af8339818101604052604081101561003357600080fd5b5080516020909101516001600160601b0319606083901b166080524360a05280600881111561005e57fe5b60c081600881111561006c57fe5b60f81b905250505060805160601c60a05160c05160f81c6106f56100ba6000398061038f5280610652525080610235528061031752508061025e5280610343528061050952506106f56000f3fe608060405234801561001057600080fd5b50600436106100725760003560e01c8063bb1757cf11610050578063bb1757cf14610112578063c6788bdd146101d7578063f1ebd5dd1461020a57610072565b80630f0af57f1461007757806377544f3314610091578063a30872db146100e1575b600080fd5b61007f610233565b60408051918252519081900360200190f35b6100cd600480360360408110156100a757600080fd5b50803573ffffffffffffffffffffffffffffffffffffffff16906020013560ff16610257565b604080519115158252519081900360200190f35b6100e9610341565b6040805173ffffffffffffffffffffffffffffffffffffffff9092168252519081900360200190f35b6101d56004803603604081101561012857600080fd5b73ffffffffffffffffffffffffffffffffffffffff823516919081019060408101602082013564010000000081111561016057600080fd5b82018360208201111561017257600080fd5b8035906020019184600183028401116401000000008311171561019457600080fd5b91908080601f016020809104026020016040519081016040528093929190818152602001838380828437600092019190915250929550610365945050505050565b005b6100cd600480360360208110156101ed57600080fd5b503573ffffffffffffffffffffffffffffffffffffffff1661063b565b610212610650565b6040518082600881111561022257fe5b815260200191505060405180910390f35b7f000000000000000000000000000000000000000000000000000000000000000081565b60006103157f000000000000000000000000000000000000000000000000000000000000000073ffffffffffffffffffffffffffffffffffffffff1663e053ea31856040518263ffffffff1660e01b8152600401808273ffffffffffffffffffffffffffffffffffffffff16815260200191505060206040518083038186803b1580156102e357600080fd5b505afa1580156102f7573d6000803e3d6000fd5b505050506040513d602081101561030d57600080fd5b505183610674565b7f0000000000000000000000000000000000000000000000000000000000000000101590505b92915050565b7f000000000000000000000000000000000000000000000000000000000000000081565b73ffffffffffffffffffffffffffffffffffffffff821660009081526020819052604090205482907f00000000000000000000000000000000000000000000000000000000000000009060ff161561041e57604080517f08c379a000000000000000000000000000000000000000000000000000000000815260206004820152600f60248201527f4455504c49434154455f434c41494d0000000000000000000000000000000000604482015290519081900360640190fd5b73ffffffffffffffffffffffffffffffffffffffff841660008181526020818152604080832080547fffffffffffffffffffffffffffffffffffffffffffffffffffffffffffffff00166001179055805182815287518184015287517fa16751aa65ef03fb7261c0a125a84854295c191657bda7151d4396246b1bbeb49489949293849390840192908601918190849084905b838110156104c95781810151838201526020016104b1565b50505050905090810190601f1680156104f65780820380516001836020036101000a031916815260200191505b509250505060405180910390a26105c0847f000000000000000000000000000000000000000000000000000000000000000073ffffffffffffffffffffffffffffffffffffffff1663e053ea31876040518263ffffffff1660e01b8152600401808273ffffffffffffffffffffffffffffffffffffffff16815260200191505060206040518083038186803b15801561058e57600080fd5b505afa1580156105a2573d6000803e3d6000fd5b505050506040513d60208110156105b857600080fd5b5051856106ba565b6105ca8282610257565b61063557604080517f08c379a000000000000000000000000000000000000000000000000000000000815260206004820152600c60248201527f4d494e494d554d5f544945520000000000000000000000000000000000000000604482015290519081900360640190fd5b50505050565b60006020819052908152604090205460ff1681565b7f000000000000000000000000000000000000000000000000000000000000000081565b60008082600881111561068357fe5b14156106915750600061033b565b600060018360088111156106a157fe5b0360200290508084901c63ffffffff1691505092915050565b50505056fea26469706673582212208b468206d9271727c89f46c051b8fd7141255927f6619be524f288ea8ab58f4b64736f6c634300060c0033",
  "linkReferences": {},
  "deployedLinkReferences": {}
}