{
  "contracts/libraries/TierUtil.sol": {
    "TierUtil": {
      "abi": [
        {
          "inputs": [],
          "name": "UNINITIALIZED",
          "outputs": [
            {
              "internalType": "uint256",
              "name": "",
              "type": "uint256"
            }
          ],
          "stateMutability": "view",
          "type": "function"
        }
      ],
      "evm": {
        "bytecode": {
          "linkReferences": {},
          "object": "60aa610024600b82828239805160001a607314601757fe5b30600052607381538281f3fe730000000000000000000000000000000000000000301460806040526004361060335760003560e01c806381e45d9a146038575b600080fd5b603e6050565b60408051918252519081900360200190f35b7fffffffffffffffffffffffffffffffffffffffffffffffffffffffffffffffff8156fea26469706673582212201b013e452a639532b0a2b32ecc9c03c322331562b7bc443c7dc7dc9302ad9e4164736f6c634300060c0033",
          "opcodes": "PUSH1 0xAA PUSH2 0x24 PUSH1 0xB DUP3 DUP3 DUP3 CODECOPY DUP1 MLOAD PUSH1 0x0 BYTE PUSH1 0x73 EQ PUSH1 0x17 JUMPI INVALID JUMPDEST ADDRESS PUSH1 0x0 MSTORE PUSH1 0x73 DUP2 MSTORE8 DUP3 DUP2 RETURN INVALID PUSH20 0x0 ADDRESS EQ PUSH1 0x80 PUSH1 0x40 MSTORE PUSH1 0x4 CALLDATASIZE LT PUSH1 0x33 JUMPI PUSH1 0x0 CALLDATALOAD PUSH1 0xE0 SHR DUP1 PUSH4 0x81E45D9A EQ PUSH1 0x38 JUMPI JUMPDEST PUSH1 0x0 DUP1 REVERT JUMPDEST PUSH1 0x3E PUSH1 0x50 JUMP JUMPDEST PUSH1 0x40 DUP1 MLOAD SWAP2 DUP3 MSTORE MLOAD SWAP1 DUP2 SWAP1 SUB PUSH1 0x20 ADD SWAP1 RETURN JUMPDEST PUSH32 0xFFFFFFFFFFFFFFFFFFFFFFFFFFFFFFFFFFFFFFFFFFFFFFFFFFFFFFFFFFFFFFFF DUP2 JUMP INVALID LOG2 PUSH5 0x6970667358 0x22 SLT KECCAK256 SHL ADD RETURNDATACOPY GASLIMIT 0x2A PUSH4 0x9532B0A2 0xB3 0x2E 0xCC SWAP13 SUB 0xC3 0x22 CALLER ISZERO PUSH3 0xB7BC44 EXTCODECOPY PUSH30 0xC7DC9302AD9E4164736F6C634300060C0033000000000000000000000000 "
        },
        "methodIdentifiers": {
          "UNINITIALIZED()": "81e45d9a"
        }
      }
    }
  }
}