{
  "contracts/tier/ValueTier.sol": {
    "ValueTier": {
      "abi": [
        {
          "inputs": [
            {
              "internalType": "uint256[8]",
              "name": "tierValues_",
              "type": "uint256[8]"
            }
          ],
          "stateMutability": "nonpayable",
          "type": "constructor"
        },
        {
          "inputs": [],
          "name": "tierValues",
          "outputs": [
            {
              "internalType": "uint256[8]",
              "name": "tierValues_",
              "type": "uint256[8]"
            }
          ],
          "stateMutability": "view",
          "type": "function"
        }
      ],
      "evm": {
        "bytecode": {
          "linkReferences": {},
          "object": "61018060405234801561001157600080fd5b506040516102c73803806102c7833981810160405261010081101561003557600080fd5b5080516080818152602083015160a0818152604085015160c0818152606087015160e0818152958801516101008190529388015161012081905291880151610140819052959097015161016081905295969395919490916101fe6100c96000398061018252508061015c52508061013652508061011052508060ea52508060c4525080609e525080607b52506101fe6000f3fe608060405234801561001057600080fd5b506004361061002b5760003560e01c806370230b3914610030575b600080fd5b610038610071565b604051808261010080838360005b8381101561005e578181015183820152602001610046565b5050505090500191505060405180910390f35b6100796101a9565b7f000000000000000000000000000000000000000000000000000000000000000081527f000000000000000000000000000000000000000000000000000000000000000060208201527f000000000000000000000000000000000000000000000000000000000000000060408201527f000000000000000000000000000000000000000000000000000000000000000060608201527f000000000000000000000000000000000000000000000000000000000000000060808201527f000000000000000000000000000000000000000000000000000000000000000060a08201527f000000000000000000000000000000000000000000000000000000000000000060c08201527f000000000000000000000000000000000000000000000000000000000000000060e082015290565b604051806101000160405280600890602082028036833750919291505056fea26469706673582212208aeefd537a30016304e3aa5cc03803fb55e624b2b88d8b309a9dd17f195bbd3664736f6c634300060c0033",
          "opcodes": "PUSH2 0x180 PUSH1 0x40 MSTORE CALLVALUE DUP1 ISZERO PUSH2 0x11 JUMPI PUSH1 0x0 DUP1 REVERT JUMPDEST POP PUSH1 0x40 MLOAD PUSH2 0x2C7 CODESIZE SUB DUP1 PUSH2 0x2C7 DUP4 CODECOPY DUP2 DUP2 ADD PUSH1 0x40 MSTORE PUSH2 0x100 DUP2 LT ISZERO PUSH2 0x35 JUMPI PUSH1 0x0 DUP1 REVERT JUMPDEST POP DUP1 MLOAD PUSH1 0x80 DUP2 DUP2 MSTORE PUSH1 0x20 DUP4 ADD MLOAD PUSH1 0xA0 DUP2 DUP2 MSTORE PUSH1 0x40 DUP6 ADD MLOAD PUSH1 0xC0 DUP2 DUP2 MSTORE PUSH1 0x60 DUP8 ADD MLOAD PUSH1 0xE0 DUP2 DUP2 MSTORE SWAP6 DUP9 ADD MLOAD PUSH2 0x100 DUP2 SWAP1 MSTORE SWAP4 DUP9 ADD MLOAD PUSH2 0x120 DUP2 SWAP1 MSTORE SWAP2 DUP9 ADD MLOAD PUSH2 0x140 DUP2 SWAP1 MSTORE SWAP6 SWAP1 SWAP8 ADD MLOAD PUSH2 0x160 DUP2 SWAP1 MSTORE SWAP6 SWAP7 SWAP4 SWAP6 SWAP2 SWAP5 SWAP1 SWAP2 PUSH2 0x1FE PUSH2 0xC9 PUSH1 0x0 CODECOPY DUP1 PUSH2 0x182 MSTORE POP DUP1 PUSH2 0x15C MSTORE POP DUP1 PUSH2 0x136 MSTORE POP DUP1 PUSH2 0x110 MSTORE POP DUP1 PUSH1 0xEA MSTORE POP DUP1 PUSH1 0xC4 MSTORE POP DUP1 PUSH1 0x9E MSTORE POP DUP1 PUSH1 0x7B MSTORE POP PUSH2 0x1FE PUSH1 0x0 RETURN INVALID PUSH1 0x80 PUSH1 0x40 MSTORE CALLVALUE DUP1 ISZERO PUSH2 0x10 JUMPI PUSH1 0x0 DUP1 REVERT JUMPDEST POP PUSH1 0x4 CALLDATASIZE LT PUSH2 0x2B JUMPI PUSH1 0x0 CALLDATALOAD PUSH1 0xE0 SHR DUP1 PUSH4 0x70230B39 EQ PUSH2 0x30 JUMPI JUMPDEST PUSH1 0x0 DUP1 REVERT JUMPDEST PUSH2 0x38 PUSH2 0x71 JUMP JUMPDEST PUSH1 0x40 MLOAD DUP1 DUP3 PUSH2 0x100 DUP1 DUP4 DUP4 PUSH1 0x0 JUMPDEST DUP4 DUP2 LT ISZERO PUSH2 0x5E JUMPI DUP2 DUP2 ADD MLOAD DUP4 DUP3 ADD MSTORE PUSH1 0x20 ADD PUSH2 0x46 JUMP JUMPDEST POP POP POP POP SWAP1 POP ADD SWAP2 POP POP PUSH1 0x40 MLOAD DUP1 SWAP2 SUB SWAP1 RETURN JUMPDEST PUSH2 0x79 PUSH2 0x1A9 JUMP JUMPDEST PUSH32 0x0 DUP2 MSTORE PUSH32 0x0 PUSH1 0x20 DUP3 ADD MSTORE PUSH32 0x0 PUSH1 0x40 DUP3 ADD MSTORE PUSH32 0x0 PUSH1 0x60 DUP3 ADD MSTORE PUSH32 0x0 PUSH1 0x80 DUP3 ADD MSTORE PUSH32 0x0 PUSH1 0xA0 DUP3 ADD MSTORE PUSH32 0x0 PUSH1 0xC0 DUP3 ADD MSTORE PUSH32 0x0 PUSH1 0xE0 DUP3 ADD MSTORE SWAP1 JUMP JUMPDEST PUSH1 0x40 MLOAD DUP1 PUSH2 0x100 ADD PUSH1 0x40 MSTORE DUP1 PUSH1 0x8 SWAP1 PUSH1 0x20 DUP3 MUL DUP1 CALLDATASIZE DUP4 CALLDATACOPY POP SWAP2 SWAP3 SWAP2 POP POP JUMP INVALID LOG2 PUSH5 0x6970667358 0x22 SLT KECCAK256 DUP11 0xEE REVERT MSTORE8 PUSH27 0x30016304E3AA5CC03803FB55E624B2B88D8B309A9DD17F195BBD36 PUSH5 0x736F6C6343 STOP MOD 0xC STOP CALLER "
        },
        "methodIdentifiers": {
          "tierValues()": "70230b39"
        }
      }
    }
  }
}