{
  "contracts/test/ValueTierTest.sol": {
    "ValueTierTest": {
      "abi": [
        {
          "inputs": [
            {
              "internalType": "uint256[8]",
              "name": "tierValues_",
              "type": "uint256[8]"
            }
          ],
          "stateMutability": "nonpayable",
          "type": "constructor"
        },
        {
          "inputs": [],
          "name": "tierValues",
          "outputs": [
            {
              "internalType": "uint256[8]",
              "name": "tierValues_",
              "type": "uint256[8]"
            }
          ],
          "stateMutability": "view",
          "type": "function"
        },
        {
          "inputs": [
            {
              "internalType": "enum ITier.Tier",
              "name": "tier_",
              "type": "uint8"
            }
          ],
          "name": "wrappedTierToValue",
          "outputs": [
            {
              "internalType": "uint256",
              "name": "",
              "type": "uint256"
            }
          ],
          "stateMutability": "view",
          "type": "function"
        },
        {
          "inputs": [
            {
              "internalType": "uint256",
              "name": "value_",
              "type": "uint256"
            }
          ],
          "name": "wrappedValueToTier",
          "outputs": [
            {
              "internalType": "enum ITier.Tier",
              "name": "",
              "type": "uint8"
            }
          ],
          "stateMutability": "view",
          "type": "function"
        }
      ],
      "evm": {
        "bytecode": {
          "linkReferences": {},
          "object": "61018060405234801561001157600080fd5b50604051610407380380610407833981810160405261010081101561003557600080fd5b5080516080818152602083015160a0818152604085015160c0818152606087015160e08181529588015161010081905293880151610120819052918801516101408190529590970151610160819052959693959194909161033a6100cd600039806102265250806102005250806101da5250806101b452508061018e52508061016852508061014252508061011f525061033a6000f3fe608060405234801561001057600080fd5b50600436106100415760003560e01c80634bc1010e146100465780635d2c11171461008457806370230b39146100b6575b600080fd5b6100636004803603602081101561005c57600080fd5b50356100f7565b6040518082600881111561007357fe5b815260200191505060405180910390f35b6100a46004803603602081101561009a57600080fd5b503560ff1661010a565b60408051918252519081900360200190f35b6100be610115565b604051808261010080838360005b838110156100e45781810151838201526020016100cc565b5050505090500191505060405180910390f35b60006101028261024d565b90505b919050565b60006101028261029e565b61011d6102e5565b7f000000000000000000000000000000000000000000000000000000000000000081527f000000000000000000000000000000000000000000000000000000000000000060208201527f000000000000000000000000000000000000000000000000000000000000000060408201527f000000000000000000000000000000000000000000000000000000000000000060608201527f000000000000000000000000000000000000000000000000000000000000000060808201527f000000000000000000000000000000000000000000000000000000000000000060a08201527f000000000000000000000000000000000000000000000000000000000000000060c08201527f000000000000000000000000000000000000000000000000000000000000000060e082015290565b6000805b600881101561029557610262610115565b816008811061026d57fe5b602002015183101561028d5780600881111561028557fe5b915050610105565b600101610251565b50600892915050565b6000808260088111156102ad57fe5b116102b9576000610102565b6102c1610115565b60018360088111156102cf57fe5b03600881106102da57fe5b602002015192915050565b604051806101000160405280600890602082028036833750919291505056fea26469706673582212208f95fdd9b1775465ab132be1a344a6c8d12c504ebc582fc28b4c37d643c7f56f64736f6c634300060c0033",
          "opcodes": "PUSH2 0x180 PUSH1 0x40 MSTORE CALLVALUE DUP1 ISZERO PUSH2 0x11 JUMPI PUSH1 0x0 DUP1 REVERT JUMPDEST POP PUSH1 0x40 MLOAD PUSH2 0x407 CODESIZE SUB DUP1 PUSH2 0x407 DUP4 CODECOPY DUP2 DUP2 ADD PUSH1 0x40 MSTORE PUSH2 0x100 DUP2 LT ISZERO PUSH2 0x35 JUMPI PUSH1 0x0 DUP1 REVERT JUMPDEST POP DUP1 MLOAD PUSH1 0x80 DUP2 DUP2 MSTORE PUSH1 0x20 DUP4 ADD MLOAD PUSH1 0xA0 DUP2 DUP2 MSTORE PUSH1 0x40 DUP6 ADD MLOAD PUSH1 0xC0 DUP2 DUP2 MSTORE PUSH1 0x60 DUP8 ADD MLOAD PUSH1 0xE0 DUP2 DUP2 MSTORE SWAP6 DUP9 ADD MLOAD PUSH2 0x100 DUP2 SWAP1 MSTORE SWAP4 DUP9 ADD MLOAD PUSH2 0x120 DUP2 SWAP1 MSTORE SWAP2 DUP9 ADD MLOAD PUSH2 0x140 DUP2 SWAP1 MSTORE SWAP6 SWAP1 SWAP8 ADD MLOAD PUSH2 0x160 DUP2 SWAP1 MSTORE SWAP6 SWAP7 SWAP4 SWAP6 SWAP2 SWAP5 SWAP1 SWAP2 PUSH2 0x33A PUSH2 0xCD PUSH1 0x0 CODECOPY DUP1 PUSH2 0x226 MSTORE POP DUP1 PUSH2 0x200 MSTORE POP DUP1 PUSH2 0x1DA MSTORE POP DUP1 PUSH2 0x1B4 MSTORE POP DUP1 PUSH2 0x18E MSTORE POP DUP1 PUSH2 0x168 MSTORE POP DUP1 PUSH2 0x142 MSTORE POP DUP1 PUSH2 0x11F MSTORE POP PUSH2 0x33A PUSH1 0x0 RETURN INVALID PUSH1 0x80 PUSH1 0x40 MSTORE CALLVALUE DUP1 ISZERO PUSH2 0x10 JUMPI PUSH1 0x0 DUP1 REVERT JUMPDEST POP PUSH1 0x4 CALLDATASIZE LT PUSH2 0x41 JUMPI PUSH1 0x0 CALLDATALOAD PUSH1 0xE0 SHR DUP1 PUSH4 0x4BC1010E EQ PUSH2 0x46 JUMPI DUP1 PUSH4 0x5D2C1117 EQ PUSH2 0x84 JUMPI DUP1 PUSH4 0x70230B39 EQ PUSH2 0xB6 JUMPI JUMPDEST PUSH1 0x0 DUP1 REVERT JUMPDEST PUSH2 0x63 PUSH1 0x4 DUP1 CALLDATASIZE SUB PUSH1 0x20 DUP2 LT ISZERO PUSH2 0x5C JUMPI PUSH1 0x0 DUP1 REVERT JUMPDEST POP CALLDATALOAD PUSH2 0xF7 JUMP JUMPDEST PUSH1 0x40 MLOAD DUP1 DUP3 PUSH1 0x8 DUP2 GT ISZERO PUSH2 0x73 JUMPI INVALID JUMPDEST DUP2 MSTORE PUSH1 0x20 ADD SWAP2 POP POP PUSH1 0x40 MLOAD DUP1 SWAP2 SUB SWAP1 RETURN JUMPDEST PUSH2 0xA4 PUSH1 0x4 DUP1 CALLDATASIZE SUB PUSH1 0x20 DUP2 LT ISZERO PUSH2 0x9A JUMPI PUSH1 0x0 DUP1 REVERT JUMPDEST POP CALLDATALOAD PUSH1 0xFF AND PUSH2 0x10A JUMP JUMPDEST PUSH1 0x40 DUP1 MLOAD SWAP2 DUP3 MSTORE MLOAD SWAP1 DUP2 SWAP1 SUB PUSH1 0x20 ADD SWAP1 RETURN JUMPDEST PUSH2 0xBE PUSH2 0x115 JUMP JUMPDEST PUSH1 0x40 MLOAD DUP1 DUP3 PUSH2 0x100 DUP1 DUP4 DUP4 PUSH1 0x0 JUMPDEST DUP4 DUP2 LT ISZERO PUSH2 0xE4 JUMPI DUP2 DUP2 ADD MLOAD DUP4 DUP3 ADD MSTORE PUSH1 0x20 ADD PUSH2 0xCC JUMP JUMPDEST POP POP POP POP SWAP1 POP ADD SWAP2 POP POP PUSH1 0x40 MLOAD DUP1 SWAP2 SUB SWAP1 RETURN JUMPDEST PUSH1 0x0 PUSH2 0x102 DUP3 PUSH2 0x24D JUMP JUMPDEST SWAP1 POP JUMPDEST SWAP2 SWAP1 POP JUMP JUMPDEST PUSH1 0x0 PUSH2 0x102 DUP3 PUSH2 0x29E JUMP JUMPDEST PUSH2 0x11D PUSH2 0x2E5 JUMP JUMPDEST PUSH32 0x0 DUP2 MSTORE PUSH32 0x0 PUSH1 0x20 DUP3 ADD MSTORE PUSH32 0x0 PUSH1 0x40 DUP3 ADD MSTORE PUSH32 0x0 PUSH1 0x60 DUP3 ADD MSTORE PUSH32 0x0 PUSH1 0x80 DUP3 ADD MSTORE PUSH32 0x0 PUSH1 0xA0 DUP3 ADD MSTORE PUSH32 0x0 PUSH1 0xC0 DUP3 ADD MSTORE PUSH32 0x0 PUSH1 0xE0 DUP3 ADD MSTORE SWAP1 JUMP JUMPDEST PUSH1 0x0 DUP1 JUMPDEST PUSH1 0x8 DUP2 LT ISZERO PUSH2 0x295 JUMPI PUSH2 0x262 PUSH2 0x115 JUMP JUMPDEST DUP2 PUSH1 0x8 DUP2 LT PUSH2 0x26D JUMPI INVALID JUMPDEST PUSH1 0x20 MUL ADD MLOAD DUP4 LT ISZERO PUSH2 0x28D JUMPI DUP1 PUSH1 0x8 DUP2 GT ISZERO PUSH2 0x285 JUMPI INVALID JUMPDEST SWAP2 POP POP PUSH2 0x105 JUMP JUMPDEST PUSH1 0x1 ADD PUSH2 0x251 JUMP JUMPDEST POP PUSH1 0x8 SWAP3 SWAP2 POP POP JUMP JUMPDEST PUSH1 0x0 DUP1 DUP3 PUSH1 0x8 DUP2 GT ISZERO PUSH2 0x2AD JUMPI INVALID JUMPDEST GT PUSH2 0x2B9 JUMPI PUSH1 0x0 PUSH2 0x102 JUMP JUMPDEST PUSH2 0x2C1 PUSH2 0x115 JUMP JUMPDEST PUSH1 0x1 DUP4 PUSH1 0x8 DUP2 GT ISZERO PUSH2 0x2CF JUMPI INVALID JUMPDEST SUB PUSH1 0x8 DUP2 LT PUSH2 0x2DA JUMPI INVALID JUMPDEST PUSH1 0x20 MUL ADD MLOAD SWAP3 SWAP2 POP POP JUMP JUMPDEST PUSH1 0x40 MLOAD DUP1 PUSH2 0x100 ADD PUSH1 0x40 MSTORE DUP1 PUSH1 0x8 SWAP1 PUSH1 0x20 DUP3 MUL DUP1 CALLDATASIZE DUP4 CALLDATACOPY POP SWAP2 SWAP3 SWAP2 POP POP JUMP INVALID LOG2 PUSH5 0x6970667358 0x22 SLT KECCAK256 DUP16 SWAP6 REVERT 0xD9 0xB1 PUSH24 0x5465AB132BE1A344A6C8D12C504EBC582FC28B4C37D643C7 CREATE2 PUSH16 0x64736F6C634300060C00330000000000 "
        },
        "methodIdentifiers": {
          "tierValues()": "70230b39",
          "wrappedTierToValue(uint8)": "5d2c1117",
          "wrappedValueToTier(uint256)": "4bc1010e"
        }
      }
    }
  }
}