{
  "contracts/test/TierByConstructionTest.sol": {
    "TierByConstructionTest": {
      "abi": [
        {
          "inputs": [
            {
              "internalType": "contract ITier",
              "name": "tier_",
              "type": "address"
            }
          ],
          "stateMutability": "nonpayable",
          "type": "constructor"
        },
        {
          "inputs": [],
          "name": "constructionBlock",
          "outputs": [
            {
              "internalType": "uint256",
              "name": "",
              "type": "uint256"
            }
          ],
          "stateMutability": "view",
          "type": "function"
        },
        {
          "inputs": [],
          "name": "ifEight",
          "outputs": [],
          "stateMutability": "view",
          "type": "function"
        },
        {
          "inputs": [],
          "name": "ifFive",
          "outputs": [],
          "stateMutability": "view",
          "type": "function"
        },
        {
          "inputs": [],
          "name": "ifFour",
          "outputs": [],
          "stateMutability": "view",
          "type": "function"
        },
        {
          "inputs": [],
          "name": "ifOne",
          "outputs": [],
          "stateMutability": "view",
          "type": "function"
        },
        {
          "inputs": [],
          "name": "ifSeven",
          "outputs": [],
          "stateMutability": "view",
          "type": "function"
        },
        {
          "inputs": [],
          "name": "ifSix",
          "outputs": [],
          "stateMutability": "view",
          "type": "function"
        },
        {
          "inputs": [],
          "name": "ifThree",
          "outputs": [],
          "stateMutability": "view",
          "type": "function"
        },
        {
          "inputs": [],
          "name": "ifTwo",
          "outputs": [],
          "stateMutability": "view",
          "type": "function"
        },
        {
          "inputs": [],
          "name": "ifZero",
          "outputs": [],
          "stateMutability": "view",
          "type": "function"
        },
        {
          "inputs": [
            {
              "internalType": "address",
              "name": "account_",
              "type": "address"
            },
            {
              "internalType": "enum ITier.Tier",
              "name": "minimumTier_",
              "type": "uint8"
            }
          ],
          "name": "isTier",
          "outputs": [
            {
              "internalType": "bool",
              "name": "",
              "type": "bool"
            }
          ],
          "stateMutability": "view",
          "type": "function"
        },
        {
          "inputs": [],
          "name": "tierContract",
          "outputs": [
            {
              "internalType": "contract ITier",
              "name": "",
              "type": "address"
            }
          ],
          "stateMutability": "view",
          "type": "function"
        },
        {
          "inputs": [],
          "name": "unlimited",
          "outputs": [],
          "stateMutability": "view",
          "type": "function"
        }
      ],
      "evm": {
        "bytecode": {
          "linkReferences": {},
          "object": "60c060405234801561001057600080fd5b506040516104dd3803806104dd8339818101604052602081101561003357600080fd5b50516001600160601b031960609190911b166080524360a05260805160601c60a05161046161007c600039806101d3528061035452508061029b528061039a52506104616000f3fe608060405234801561001057600080fd5b50600436106100df5760003560e01c80637922deb51161008c578063cb457d4711610066578063cb457d47146101b1578063d1abd2de146101b9578063d78aafde146101c1578063e149ceb5146101c9576100df565b80637922deb5146101705780637bcd3dc514610178578063a30872db14610180576100df565b80636bdfcec6116100bd5780636bdfcec61461011057806375bf27871461011857806377544f3314610120576100df565b80630f0af57f146100e45780631fb3d151146100fe5780633f15225114610108575b600080fd5b6100ec6101d1565b60408051918252519081900360200190f35b6101066101f5565b005b610106610271565b61010661027e565b61010661028b565b61015c6004803603604081101561013657600080fd5b50803573ffffffffffffffffffffffffffffffffffffffff16906020013560ff16610294565b604080519115158252519081900360200190f35b61010661037e565b61010661038b565b610188610398565b6040805173ffffffffffffffffffffffffffffffffffffffff9092168252519081900360200190f35b6101066103bc565b6101066103be565b6101066103cb565b6101066103d8565b7f000000000000000000000000000000000000000000000000000000000000000081565b3360086102028282610294565b61026d57604080517f08c379a000000000000000000000000000000000000000000000000000000000815260206004820152600c60248201527f4d494e494d554d5f544945520000000000000000000000000000000000000000604482015290519081900360640190fd5b5050565b3360046102028282610294565b3360066102028282610294565b33600361020282825b60006103527f000000000000000000000000000000000000000000000000000000000000000073ffffffffffffffffffffffffffffffffffffffff1663e053ea31856040518263ffffffff1660e01b8152600401808273ffffffffffffffffffffffffffffffffffffffff16815260200191505060206040518083038186803b15801561032057600080fd5b505afa158015610334573d6000803e3d6000fd5b505050506040513d602081101561034a57600080fd5b5051836103e5565b7f0000000000000000000000000000000000000000000000000000000000000000101590505b92915050565b3360076102028282610294565b3360006102028282610294565b7f000000000000000000000000000000000000000000000000000000000000000081565b565b3360016102028282610294565b3360056102028282610294565b3360026102028282610294565b6000808260088111156103f457fe5b141561040257506000610378565b6000600183600881111561041257fe5b0360200290508084901c63ffffffff169150509291505056fea264697066735822122023adae5be213cba6911641a378158ba831ad81a6bf74a194ac2c2832491dba0a64736f6c634300060c0033",
          "opcodes": "PUSH1 0xC0 PUSH1 0x40 MSTORE CALLVALUE DUP1 ISZERO PUSH2 0x10 JUMPI PUSH1 0x0 DUP1 REVERT JUMPDEST POP PUSH1 0x40 MLOAD PUSH2 0x4DD CODESIZE SUB DUP1 PUSH2 0x4DD DUP4 CODECOPY DUP2 DUP2 ADD PUSH1 0x40 MSTORE PUSH1 0x20 DUP2 LT ISZERO PUSH2 0x33 JUMPI PUSH1 0x0 DUP1 REVERT JUMPDEST POP MLOAD PUSH1 0x1 PUSH1 0x1 PUSH1 0x60 SHL SUB NOT PUSH1 0x60 SWAP2 SWAP1 SWAP2 SHL AND PUSH1 0x80 MSTORE NUMBER PUSH1 0xA0 MSTORE PUSH1 0x80 MLOAD PUSH1 0x60 SHR PUSH1 0xA0 MLOAD PUSH2 0x461 PUSH2 0x7C PUSH1 0x0 CODECOPY DUP1 PUSH2 0x1D3 MSTORE DUP1 PUSH2 0x354 MSTORE POP DUP1 PUSH2 0x29B MSTORE DUP1 PUSH2 0x39A MSTORE POP PUSH2 0x461 PUSH1 0x0 RETURN INVALID PUSH1 0x80 PUSH1 0x40 MSTORE CALLVALUE DUP1 ISZERO PUSH2 0x10 JUMPI PUSH1 0x0 DUP1 REVERT JUMPDEST POP PUSH1 0x4 CALLDATASIZE LT PUSH2 0xDF JUMPI PUSH1 0x0 CALLDATALOAD PUSH1 0xE0 SHR DUP1 PUSH4 0x7922DEB5 GT PUSH2 0x8C JUMPI DUP1 PUSH4 0xCB457D47 GT PUSH2 0x66 JUMPI DUP1 PUSH4 0xCB457D47 EQ PUSH2 0x1B1 JUMPI DUP1 PUSH4 0xD1ABD2DE EQ PUSH2 0x1B9 JUMPI DUP1 PUSH4 0xD78AAFDE EQ PUSH2 0x1C1 JUMPI DUP1 PUSH4 0xE149CEB5 EQ PUSH2 0x1C9 JUMPI PUSH2 0xDF JUMP JUMPDEST DUP1 PUSH4 0x7922DEB5 EQ PUSH2 0x170 JUMPI DUP1 PUSH4 0x7BCD3DC5 EQ PUSH2 0x178 JUMPI DUP1 PUSH4 0xA30872DB EQ PUSH2 0x180 JUMPI PUSH2 0xDF JUMP JUMPDEST DUP1 PUSH4 0x6BDFCEC6 GT PUSH2 0xBD JUMPI DUP1 PUSH4 0x6BDFCEC6 EQ PUSH2 0x110 JUMPI DUP1 PUSH4 0x75BF2787 EQ PUSH2 0x118 JUMPI DUP1 PUSH4 0x77544F33 EQ PUSH2 0x120 JUMPI PUSH2 0xDF JUMP JUMPDEST DUP1 PUSH4 0xF0AF57F EQ PUSH2 0xE4 JUMPI DUP1 PUSH4 0x1FB3D151 EQ PUSH2 0xFE JUMPI DUP1 PUSH4 0x3F152251 EQ PUSH2 0x108 JUMPI JUMPDEST PUSH1 0x0 DUP1 REVERT JUMPDEST PUSH2 0xEC PUSH2 0x1D1 JUMP JUMPDEST PUSH1 0x40 DUP1 MLOAD SWAP2 DUP3 MSTORE MLOAD SWAP1 DUP2 SWAP1 SUB PUSH1 0x20 ADD SWAP1 RETURN JUMPDEST PUSH2 0x106 PUSH2 0x1F5 JUMP JUMPDEST STOP JUMPDEST PUSH2 0x106 PUSH2 0x271 JUMP JUMPDEST PUSH2 0x106 PUSH2 0x27E JUMP JUMPDEST PUSH2 0x106 PUSH2 0x28B JUMP JUMPDEST PUSH2 0x15C PUSH1 0x4 DUP1 CALLDATASIZE SUB PUSH1 0x40 DUP2 LT ISZERO PUSH2 0x136 JUMPI PUSH1 0x0 DUP1 REVERT JUMPDEST POP DUP1 CALLDATALOAD PUSH20 0xFFFFFFFFFFFFFFFFFFFFFFFFFFFFFFFFFFFFFFFF AND SWAP1 PUSH1 0x20 ADD CALLDATALOAD PUSH1 0xFF AND PUSH2 0x294 JUMP JUMPDEST PUSH1 0x40 DUP1 MLOAD SWAP2 ISZERO ISZERO DUP3 MSTORE MLOAD SWAP1 DUP2 SWAP1 SUB PUSH1 0x20 ADD SWAP1 RETURN JUMPDEST PUSH2 0x106 PUSH2 0x37E JUMP JUMPDEST PUSH2 0x106 PUSH2 0x38B JUMP JUMPDEST PUSH2 0x188 PUSH2 0x398 JUMP JUMPDEST PUSH1 0x40 DUP1 MLOAD PUSH20 0xFFFFFFFFFFFFFFFFFFFFFFFFFFFFFFFFFFFFFFFF SWAP1 SWAP3 AND DUP3 MSTORE MLOAD SWAP1 DUP2 SWAP1 SUB PUSH1 0x20 ADD SWAP1 RETURN JUMPDEST PUSH2 0x106 PUSH2 0x3BC JUMP JUMPDEST PUSH2 0x106 PUSH2 0x3BE JUMP JUMPDEST PUSH2 0x106 PUSH2 0x3CB JUMP JUMPDEST PUSH2 0x106 PUSH2 0x3D8 JUMP JUMPDEST PUSH32 0x0 DUP2 JUMP JUMPDEST CALLER PUSH1 0x8 PUSH2 0x202 DUP3 DUP3 PUSH2 0x294 JUMP JUMPDEST PUSH2 0x26D JUMPI PUSH1 0x40 DUP1 MLOAD PUSH32 0x8C379A000000000000000000000000000000000000000000000000000000000 DUP2 MSTORE PUSH1 0x20 PUSH1 0x4 DUP3 ADD MSTORE PUSH1 0xC PUSH1 0x24 DUP3 ADD MSTORE PUSH32 0x4D494E494D554D5F544945520000000000000000000000000000000000000000 PUSH1 0x44 DUP3 ADD MSTORE SWAP1 MLOAD SWAP1 DUP2 SWAP1 SUB PUSH1 0x64 ADD SWAP1 REVERT JUMPDEST POP POP JUMP JUMPDEST CALLER PUSH1 0x4 PUSH2 0x202 DUP3 DUP3 PUSH2 0x294 JUMP JUMPDEST CALLER PUSH1 0x6 PUSH2 0x202 DUP3 DUP3 PUSH2 0x294 JUMP JUMPDEST CALLER PUSH1 0x3 PUSH2 0x202 DUP3 DUP3 JUMPDEST PUSH1 0x0 PUSH2 0x352 PUSH32 0x0 PUSH20 0xFFFFFFFFFFFFFFFFFFFFFFFFFFFFFFFFFFFFFFFF AND PUSH4 0xE053EA31 DUP6 PUSH1 0x40 MLOAD DUP3 PUSH4 0xFFFFFFFF AND PUSH1 0xE0 SHL DUP2 MSTORE PUSH1 0x4 ADD DUP1 DUP3 PUSH20 0xFFFFFFFFFFFFFFFFFFFFFFFFFFFFFFFFFFFFFFFF AND DUP2 MSTORE PUSH1 0x20 ADD SWAP2 POP POP PUSH1 0x20 PUSH1 0x40 MLOAD DUP1 DUP4 SUB DUP2 DUP7 DUP1 EXTCODESIZE ISZERO DUP1 ISZERO PUSH2 0x320 JUMPI PUSH1 0x0 DUP1 REVERT JUMPDEST POP GAS STATICCALL ISZERO DUP1 ISZERO PUSH2 0x334 JUMPI RETURNDATASIZE PUSH1 0x0 DUP1 RETURNDATACOPY RETURNDATASIZE PUSH1 0x0 REVERT JUMPDEST POP POP POP POP PUSH1 0x40 MLOAD RETURNDATASIZE PUSH1 0x20 DUP2 LT ISZERO PUSH2 0x34A JUMPI PUSH1 0x0 DUP1 REVERT JUMPDEST POP MLOAD DUP4 PUSH2 0x3E5 JUMP JUMPDEST PUSH32 0x0 LT ISZERO SWAP1 POP JUMPDEST SWAP3 SWAP2 POP POP JUMP JUMPDEST CALLER PUSH1 0x7 PUSH2 0x202 DUP3 DUP3 PUSH2 0x294 JUMP JUMPDEST CALLER PUSH1 0x0 PUSH2 0x202 DUP3 DUP3 PUSH2 0x294 JUMP JUMPDEST PUSH32 0x0 DUP2 JUMP JUMPDEST JUMP JUMPDEST CALLER PUSH1 0x1 PUSH2 0x202 DUP3 DUP3 PUSH2 0x294 JUMP JUMPDEST CALLER PUSH1 0x5 PUSH2 0x202 DUP3 DUP3 PUSH2 0x294 JUMP JUMPDEST CALLER PUSH1 0x2 PUSH2 0x202 DUP3 DUP3 PUSH2 0x294 JUMP JUMPDEST PUSH1 0x0 DUP1 DUP3 PUSH1 0x8 DUP2 GT ISZERO PUSH2 0x3F4 JUMPI INVALID JUMPDEST EQ ISZERO PUSH2 0x402 JUMPI POP PUSH1 0x0 PUSH2 0x378 JUMP JUMPDEST PUSH1 0x0 PUSH1 0x1 DUP4 PUSH1 0x8 DUP2 GT ISZERO PUSH2 0x412 JUMPI INVALID JUMPDEST SUB PUSH1 0x20 MUL SWAP1 POP DUP1 DUP5 SWAP1 SHR PUSH4 0xFFFFFFFF AND SWAP2 POP POP SWAP3 SWAP2 POP POP JUMP INVALID LOG2 PUSH5 0x6970667358 0x22 SLT KECCAK256 0x23 0xAD 0xAE JUMPDEST 0xE2 SGT 0xCB 0xA6 SWAP2 AND COINBASE LOG3 PUSH25 0x158BA831AD81A6BF74A194AC2C2832491DBA0A64736F6C6343 STOP MOD 0xC STOP CALLER "
        },
        "methodIdentifiers": {
          "constructionBlock()": "0f0af57f",
          "ifEight()": "1fb3d151",
          "ifFive()": "d78aafde",
          "ifFour()": "3f152251",
          "ifOne()": "d1abd2de",
          "ifSeven()": "7922deb5",
          "ifSix()": "6bdfcec6",
          "ifThree()": "75bf2787",
          "ifTwo()": "e149ceb5",
          "ifZero()": "7bcd3dc5",
          "isTier(address,uint8)": "77544f33",
          "tierContract()": "a30872db",
          "unlimited()": "cb457d47"
        }
      }
    }
  }
}