{
  "contracts/tier/ReadWriteTier.sol": {
    "ReadWriteTier": {
      "abi": [
        {
          "anonymous": false,
          "inputs": [
            {
              "indexed": true,
              "internalType": "address",
              "name": "account",
              "type": "address"
            },
            {
              "indexed": true,
              "internalType": "enum ITier.Tier",
              "name": "startTier",
              "type": "uint8"
            },
            {
              "indexed": true,
              "internalType": "enum ITier.Tier",
              "name": "endTier",
              "type": "uint8"
            }
          ],
          "name": "TierChange",
          "type": "event"
        },
        {
          "inputs": [
            {
              "internalType": "address",
              "name": "account_",
              "type": "address"
            }
          ],
          "name": "report",
          "outputs": [
            {
              "internalType": "uint256",
              "name": "",
              "type": "uint256"
            }
          ],
          "stateMutability": "view",
          "type": "function"
        },
        {
          "inputs": [
            {
              "internalType": "address",
              "name": "",
              "type": "address"
            }
          ],
          "name": "reports",
          "outputs": [
            {
              "internalType": "uint256",
              "name": "",
              "type": "uint256"
            }
          ],
          "stateMutability": "view",
          "type": "function"
        },
        {
          "inputs": [
            {
              "internalType": "address",
              "name": "account_",
              "type": "address"
            },
            {
              "internalType": "enum ITier.Tier",
              "name": "endTier_",
              "type": "uint8"
            },
            {
              "internalType": "bytes",
              "name": "data_",
              "type": "bytes"
            }
          ],
          "name": "setTier",
          "outputs": [],
          "stateMutability": "nonpayable",
          "type": "function"
        }
      ],
      "evm": {
        "bytecode": {
          "linkReferences": {},
          "object": "608060405234801561001057600080fd5b506104b2806100206000396000f3fe608060405234801561001057600080fd5b50600436106100415760003560e01c8063252210e31461004657806352dab69d1461008b578063e053ea3114610158575b600080fd5b6100796004803603602081101561005c57600080fd5b503573ffffffffffffffffffffffffffffffffffffffff1661018b565b60408051918252519081900360200190f35b610156600480360360608110156100a157600080fd5b73ffffffffffffffffffffffffffffffffffffffff8235169160ff602082013516918101906060810160408201356401000000008111156100e157600080fd5b8201836020820111156100f357600080fd5b8035906020019184600183028401116401000000008311171561011557600080fd5b91908080601f01602080910402602001604051908101604052809392919081815260200183838082843760009201919091525092955061019d945050505050565b005b6100796004803603602081101561016e57600080fd5b503573ffffffffffffffffffffffffffffffffffffffff166102d1565b60006020819052908152604090205481565b60008260088111156101ab57fe5b141561021857604080517f08c379a000000000000000000000000000000000000000000000000000000000815260206004820152600d60248201527f5345545f5a45524f5f5449455200000000000000000000000000000000000000604482015290519081900360640190fd5b6000610223846102d1565b90506000610231824361034e565b905061023f8282864361039b565b73ffffffffffffffffffffffffffffffffffffffff861660009081526020819052604090205583600881111561027157fe5b81600881111561027d57fe5b60405173ffffffffffffffffffffffffffffffffffffffff8816907fc47100edc32c382b56a1def2d144f6ab67d8f50be6efa18b329d2e82ee875db290600090a46102ca858286866103de565b5050505050565b73ffffffffffffffffffffffffffffffffffffffff8116600090815260208190526040812054610321577fffffffffffffffffffffffffffffffffffffffffffffffffffffffffffffffff610348565b73ffffffffffffffffffffffffffffffffffffffff82166000908152602081905260409020545b92915050565b6000805b6008811015610391578263ffffffff168160200285901c63ffffffff1611156103895780600881111561038157fe5b915050610348565b600101610352565b5060089392505050565b60008360088111156103a957fe5b8360088111156103b557fe5b106103cb576103c6858585856103e4565b6103d5565b6103d58584610436565b95945050505050565b50505050565b60008060008560088111156103f557fe5b90505b84600881111561040457fe5b81101561042b5763ffffffff6020820290811b199790971684881b179691506001016103f8565b509495945050505050565b60008082600881111561044557fe5b7fffffffffffffffffffffffffffffffffffffffffffffffffffffffffffffffff60209190910290811c901b84179150509291505056fea26469706673582212206b04d87be80310d09f5b20b13a37e6dccc3fedd0c55c1b81d5ba816eddf67f4a64736f6c634300060c0033",
          "opcodes": "PUSH1 0x80 PUSH1 0x40 MSTORE CALLVALUE DUP1 ISZERO PUSH2 0x10 JUMPI PUSH1 0x0 DUP1 REVERT JUMPDEST POP PUSH2 0x4B2 DUP1 PUSH2 0x20 PUSH1 0x0 CODECOPY PUSH1 0x0 RETURN INVALID PUSH1 0x80 PUSH1 0x40 MSTORE CALLVALUE DUP1 ISZERO PUSH2 0x10 JUMPI PUSH1 0x0 DUP1 REVERT JUMPDEST POP PUSH1 0x4 CALLDATASIZE LT PUSH2 0x41 JUMPI PUSH1 0x0 CALLDATALOAD PUSH1 0xE0 SHR DUP1 PUSH4 0x252210E3 EQ PUSH2 0x46 JUMPI DUP1 PUSH4 0x52DAB69D EQ PUSH2 0x8B JUMPI DUP1 PUSH4 0xE053EA31 EQ PUSH2 0x158 JUMPI JUMPDEST PUSH1 0x0 DUP1 REVERT JUMPDEST PUSH2 0x79 PUSH1 0x4 DUP1 CALLDATASIZE SUB PUSH1 0x20 DUP2 LT ISZERO PUSH2 0x5C JUMPI PUSH1 0x0 DUP1 REVERT JUMPDEST POP CALLDATALOAD PUSH20 0xFFFFFFFFFFFFFFFFFFFFFFFFFFFFFFFFFFFFFFFF AND PUSH2 0x18B JUMP JUMPDEST PUSH1 0x40 DUP1 MLOAD SWAP2 DUP3 MSTORE MLOAD SWAP1 DUP2 SWAP1 SUB PUSH1 0x20 ADD SWAP1 RETURN JUMPDEST PUSH2 0x156 PUSH1 0x4 DUP1 CALLDATASIZE SUB PUSH1 0x60 DUP2 LT ISZERO PUSH2 0xA1 JUMPI PUSH1 0x0 DUP1 REVERT JUMPDEST PUSH20 0xFFFFFFFFFFFFFFFFFFFFFFFFFFFFFFFFFFFFFFFF DUP3 CALLDATALOAD AND SWAP2 PUSH1 0xFF PUSH1 0x20 DUP3 ADD CALLDATALOAD AND SWAP2 DUP2 ADD SWAP1 PUSH1 0x60 DUP2 ADD PUSH1 0x40 DUP3 ADD CALLDATALOAD PUSH5 0x100000000 DUP2 GT ISZERO PUSH2 0xE1 JUMPI PUSH1 0x0 DUP1 REVERT JUMPDEST DUP3 ADD DUP4 PUSH1 0x20 DUP3 ADD GT ISZERO PUSH2 0xF3 JUMPI PUSH1 0x0 DUP1 REVERT JUMPDEST DUP1 CALLDATALOAD SWAP1 PUSH1 0x20 ADD SWAP2 DUP5 PUSH1 0x1 DUP4 MUL DUP5 ADD GT PUSH5 0x100000000 DUP4 GT OR ISZERO PUSH2 0x115 JUMPI PUSH1 0x0 DUP1 REVERT JUMPDEST SWAP2 SWAP1 DUP1 DUP1 PUSH1 0x1F ADD PUSH1 0x20 DUP1 SWAP2 DIV MUL PUSH1 0x20 ADD PUSH1 0x40 MLOAD SWAP1 DUP2 ADD PUSH1 0x40 MSTORE DUP1 SWAP4 SWAP3 SWAP2 SWAP1 DUP2 DUP2 MSTORE PUSH1 0x20 ADD DUP4 DUP4 DUP1 DUP3 DUP5 CALLDATACOPY PUSH1 0x0 SWAP3 ADD SWAP2 SWAP1 SWAP2 MSTORE POP SWAP3 SWAP6 POP PUSH2 0x19D SWAP5 POP POP POP POP POP JUMP JUMPDEST STOP JUMPDEST PUSH2 0x79 PUSH1 0x4 DUP1 CALLDATASIZE SUB PUSH1 0x20 DUP2 LT ISZERO PUSH2 0x16E JUMPI PUSH1 0x0 DUP1 REVERT JUMPDEST POP CALLDATALOAD PUSH20 0xFFFFFFFFFFFFFFFFFFFFFFFFFFFFFFFFFFFFFFFF AND PUSH2 0x2D1 JUMP JUMPDEST PUSH1 0x0 PUSH1 0x20 DUP2 SWAP1 MSTORE SWAP1 DUP2 MSTORE PUSH1 0x40 SWAP1 KECCAK256 SLOAD DUP2 JUMP JUMPDEST PUSH1 0x0 DUP3 PUSH1 0x8 DUP2 GT ISZERO PUSH2 0x1AB JUMPI INVALID JUMPDEST EQ ISZERO PUSH2 0x218 JUMPI PUSH1 0x40 DUP1 MLOAD PUSH32 0x8C379A000000000000000000000000000000000000000000000000000000000 DUP2 MSTORE PUSH1 0x20 PUSH1 0x4 DUP3 ADD MSTORE PUSH1 0xD PUSH1 0x24 DUP3 ADD MSTORE PUSH32 0x5345545F5A45524F5F5449455200000000000000000000000000000000000000 PUSH1 0x44 DUP3 ADD MSTORE SWAP1 MLOAD SWAP1 DUP2 SWAP1 SUB PUSH1 0x64 ADD SWAP1 REVERT JUMPDEST PUSH1 0x0 PUSH2 0x223 DUP5 PUSH2 0x2D1 JUMP JUMPDEST SWAP1 POP PUSH1 0x0 PUSH2 0x231 DUP3 NUMBER PUSH2 0x34E JUMP JUMPDEST SWAP1 POP PUSH2 0x23F DUP3 DUP3 DUP7 NUMBER PUSH2 0x39B JUMP JUMPDEST PUSH20 0xFFFFFFFFFFFFFFFFFFFFFFFFFFFFFFFFFFFFFFFF DUP7 AND PUSH1 0x0 SWAP1 DUP2 MSTORE PUSH1 0x20 DUP2 SWAP1 MSTORE PUSH1 0x40 SWAP1 KECCAK256 SSTORE DUP4 PUSH1 0x8 DUP2 GT ISZERO PUSH2 0x271 JUMPI INVALID JUMPDEST DUP2 PUSH1 0x8 DUP2 GT ISZERO PUSH2 0x27D JUMPI INVALID JUMPDEST PUSH1 0x40 MLOAD PUSH20 0xFFFFFFFFFFFFFFFFFFFFFFFFFFFFFFFFFFFFFFFF DUP9 AND SWAP1 PUSH32 0xC47100EDC32C382B56A1DEF2D144F6AB67D8F50BE6EFA18B329D2E82EE875DB2 SWAP1 PUSH1 0x0 SWAP1 LOG4 PUSH2 0x2CA DUP6 DUP3 DUP7 DUP7 PUSH2 0x3DE JUMP JUMPDEST POP POP POP POP POP JUMP JUMPDEST PUSH20 0xFFFFFFFFFFFFFFFFFFFFFFFFFFFFFFFFFFFFFFFF DUP2 AND PUSH1 0x0 SWAP1 DUP2 MSTORE PUSH1 0x20 DUP2 SWAP1 MSTORE PUSH1 0x40 DUP2 KECCAK256 SLOAD PUSH2 0x321 JUMPI PUSH32 0xFFFFFFFFFFFFFFFFFFFFFFFFFFFFFFFFFFFFFFFFFFFFFFFFFFFFFFFFFFFFFFFF PUSH2 0x348 JUMP JUMPDEST PUSH20 0xFFFFFFFFFFFFFFFFFFFFFFFFFFFFFFFFFFFFFFFF DUP3 AND PUSH1 0x0 SWAP1 DUP2 MSTORE PUSH1 0x20 DUP2 SWAP1 MSTORE PUSH1 0x40 SWAP1 KECCAK256 SLOAD JUMPDEST SWAP3 SWAP2 POP POP JUMP JUMPDEST PUSH1 0x0 DUP1 JUMPDEST PUSH1 0x8 DUP2 LT ISZERO PUSH2 0x391 JUMPI DUP3 PUSH4 0xFFFFFFFF AND DUP2 PUSH1 0x20 MUL DUP6 SWAP1 SHR PUSH4 0xFFFFFFFF AND GT ISZERO PUSH2 0x389 JUMPI DUP1 PUSH1 0x8 DUP2 GT ISZERO PUSH2 0x381 JUMPI INVALID JUMPDEST SWAP2 POP POP PUSH2 0x348 JUMP JUMPDEST PUSH1 0x1 ADD PUSH2 0x352 JUMP JUMPDEST POP PUSH1 0x8 SWAP4 SWAP3 POP POP POP JUMP JUMPDEST PUSH1 0x0 DUP4 PUSH1 0x8 DUP2 GT ISZERO PUSH2 0x3A9 JUMPI INVALID JUMPDEST DUP4 PUSH1 0x8 DUP2 GT ISZERO PUSH2 0x3B5 JUMPI INVALID JUMPDEST LT PUSH2 0x3CB JUMPI PUSH2 0x3C6 DUP6 DUP6 DUP6 DUP6 PUSH2 0x3E4 JUMP JUMPDEST PUSH2 0x3D5 JUMP JUMPDEST PUSH2 0x3D5 DUP6 DUP5 PUSH2 0x436 JUMP JUMPDEST SWAP6 SWAP5 POP POP POP POP POP JUMP JUMPDEST POP POP POP POP JUMP JUMPDEST PUSH1 0x0 DUP1 PUSH1 0x0 DUP6 PUSH1 0x8 DUP2 GT ISZERO PUSH2 0x3F5 JUMPI INVALID JUMPDEST SWAP1 POP JUMPDEST DUP5 PUSH1 0x8 DUP2 GT ISZERO PUSH2 0x404 JUMPI INVALID JUMPDEST DUP2 LT ISZERO PUSH2 0x42B JUMPI PUSH4 0xFFFFFFFF PUSH1 0x20 DUP3 MUL SWAP1 DUP2 SHL NOT SWAP8 SWAP1 SWAP8 AND DUP5 DUP9 SHL OR SWAP7 SWAP2 POP PUSH1 0x1 ADD PUSH2 0x3F8 JUMP JUMPDEST POP SWAP5 SWAP6 SWAP5 POP POP POP POP POP JUMP JUMPDEST PUSH1 0x0 DUP1 DUP3 PUSH1 0x8 DUP2 GT ISZERO PUSH2 0x445 JUMPI INVALID JUMPDEST PUSH32 0xFFFFFFFFFFFFFFFFFFFFFFFFFFFFFFFFFFFFFFFFFFFFFFFFFFFFFFFFFFFFFFFF PUSH1 0x20 SWAP2 SWAP1 SWAP2 MUL SWAP1 DUP2 SHR SWAP1 SHL DUP5 OR SWAP2 POP POP SWAP3 SWAP2 POP POP JUMP INVALID LOG2 PUSH5 0x6970667358 0x22 SLT KECCAK256 PUSH12 0x4D87BE80310D09F5B20B13A CALLDATACOPY 0xE6 0xDC 0xCC EXTCODEHASH 0xED 0xD0 0xC5 0x5C SHL DUP2 0xD5 0xBA DUP2 PUSH15 0xDDF67F4A64736F6C634300060C0033 "
        },
        "methodIdentifiers": {
          "report(address)": "e053ea31",
          "reports(address)": "252210e3",
          "setTier(address,uint8,bytes)": "52dab69d"
        }
      }
    }
  }
}