{
  "contracts/test/TierUtilTest.sol": {
    "TierUtilTest": {
      "abi": [
        {
          "inputs": [
            {
              "internalType": "uint256",
              "name": "report_",
              "type": "uint256"
            },
            {
              "internalType": "uint256",
              "name": "blockNumber_",
              "type": "uint256"
            }
          ],
          "name": "tierAtBlockFromReport",
          "outputs": [
            {
              "internalType": "enum ITier.Tier",
              "name": "",
              "type": "uint8"
            }
          ],
          "stateMutability": "pure",
          "type": "function"
        },
        {
          "inputs": [
            {
              "internalType": "uint256",
              "name": "report_",
              "type": "uint256"
            },
            {
              "internalType": "enum ITier.Tier",
              "name": "tier_",
              "type": "uint8"
            }
          ],
          "name": "tierBlock",
          "outputs": [
            {
              "internalType": "uint256",
              "name": "",
              "type": "uint256"
            }
          ],
          "stateMutability": "pure",
          "type": "function"
        },
        {
          "inputs": [
            {
              "internalType": "uint256",
              "name": "report_",
              "type": "uint256"
            },
            {
              "internalType": "enum ITier.Tier",
              "name": "tier_",
              "type": "uint8"
            }
          ],
          "name": "truncateTiersAbove",
          "outputs": [
            {
              "internalType": "uint256",
              "name": "",
              "type": "uint256"
            }
          ],
          "stateMutability": "pure",
          "type": "function"
        },
        {
          "inputs": [
            {
              "internalType": "uint256",
              "name": "report_",
              "type": "uint256"
            },
            {
              "internalType": "enum ITier.Tier",
              "name": "startTier_",
              "type": "uint8"
            },
            {
              "internalType": "enum ITier.Tier",
              "name": "endTier_",
              "type": "uint8"
            },
            {
              "internalType": "uint256",
              "name": "blockNumber_",
              "type": "uint256"
            }
          ],
          "name": "updateBlocksForTierRange",
          "outputs": [
            {
              "internalType": "uint256",
              "name": "",
              "type": "uint256"
            }
          ],
          "stateMutability": "pure",
          "type": "function"
        },
        {
          "inputs": [
            {
              "internalType": "uint256",
              "name": "report_",
              "type": "uint256"
            },
            {
              "internalType": "enum ITier.Tier",
              "name": "startTier_",
              "type": "uint8"
            },
            {
              "internalType": "enum ITier.Tier",
              "name": "endTier_",
              "type": "uint8"
            },
            {
              "internalType": "uint256",
              "name": "blockNumber_",
              "type": "uint256"
            }
          ],
          "name": "updateReportWithTierAtBlock",
          "outputs": [
            {
              "internalType": "uint256",
              "name": "",
              "type": "uint256"
            }
          ],
          "stateMutability": "pure",
          "type": "function"
        }
      ],
      "evm": {
        "bytecode": {
          "linkReferences": {},
          "object": "608060405234801561001057600080fd5b50610365806100206000396000f3fe608060405234801561001057600080fd5b50600436106100675760003560e01c80637c76a2fb116100505780637c76a2fb146100e8578063d37fc68a1461010e578063d47070311461014457610067565b80630e47450b1461006c5780636ed9558d146100a4575b600080fd5b6100926004803603604081101561008257600080fd5b508035906020013560ff1661017a565b60408051918252519081900360200190f35b6100c7600480360360408110156100ba57600080fd5b508035906020013561018f565b604051808260088111156100d757fe5b815260200191505060405180910390f35b610092600480360360408110156100fe57600080fd5b508035906020013560ff1661019b565b6100926004803603608081101561012457600080fd5b5080359060ff6020820135811691604081013590911690606001356101a7565b6100926004803603608081101561015a57600080fd5b5080359060ff6020820135811691604081013590911690606001356101be565b600061018683836101cc565b90505b92915050565b60006101868383610212565b6000610186838361025d565b60006101b5858585856102a3565b95945050505050565b60006101b5858585856102f5565b6000808260088111156101db57fe5b14156101e957506000610189565b600060018360088111156101f957fe5b0360200290508084901c63ffffffff1691505092915050565b6000805b6008811015610255578263ffffffff168160200285901c63ffffffff16111561024d5780600881111561024557fe5b915050610189565b600101610216565b506008610186565b60008082600881111561026c57fe5b7fffffffffffffffffffffffffffffffffffffffffffffffffffffffffffffffff60209190910290811c901b841791505092915050565b60008060008560088111156102b457fe5b90505b8460088111156102c357fe5b8110156102ea5763ffffffff6020820290811b199790971684881b179691506001016102b7565b509495945050505050565b600083600881111561030357fe5b83600881111561030f57fe5b1061032557610320858585856102a3565b6101b5565b6101b5858461025d56fea26469706673582212204497976e0ae7ea92e8c77b2315cf6472cfe4b5d9b9403e1945ca3cfa6692ea2d64736f6c634300060c0033",
          "opcodes": "PUSH1 0x80 PUSH1 0x40 MSTORE CALLVALUE DUP1 ISZERO PUSH2 0x10 JUMPI PUSH1 0x0 DUP1 REVERT JUMPDEST POP PUSH2 0x365 DUP1 PUSH2 0x20 PUSH1 0x0 CODECOPY PUSH1 0x0 RETURN INVALID PUSH1 0x80 PUSH1 0x40 MSTORE CALLVALUE DUP1 ISZERO PUSH2 0x10 JUMPI PUSH1 0x0 DUP1 REVERT JUMPDEST POP PUSH1 0x4 CALLDATASIZE LT PUSH2 0x67 JUMPI PUSH1 0x0 CALLDATALOAD PUSH1 0xE0 SHR DUP1 PUSH4 0x7C76A2FB GT PUSH2 0x50 JUMPI DUP1 PUSH4 0x7C76A2FB EQ PUSH2 0xE8 JUMPI DUP1 PUSH4 0xD37FC68A EQ PUSH2 0x10E JUMPI DUP1 PUSH4 0xD4707031 EQ PUSH2 0x144 JUMPI PUSH2 0x67 JUMP JUMPDEST DUP1 PUSH4 0xE47450B EQ PUSH2 0x6C JUMPI DUP1 PUSH4 0x6ED9558D EQ PUSH2 0xA4 JUMPI JUMPDEST PUSH1 0x0 DUP1 REVERT JUMPDEST PUSH2 0x92 PUSH1 0x4 DUP1 CALLDATASIZE SUB PUSH1 0x40 DUP2 LT ISZERO PUSH2 0x82 JUMPI PUSH1 0x0 DUP1 REVERT JUMPDEST POP DUP1 CALLDATALOAD SWAP1 PUSH1 0x20 ADD CALLDATALOAD PUSH1 0xFF AND PUSH2 0x17A JUMP JUMPDEST PUSH1 0x40 DUP1 MLOAD SWAP2 DUP3 MSTORE MLOAD SWAP1 DUP2 SWAP1 SUB PUSH1 0x20 ADD SWAP1 RETURN JUMPDEST PUSH2 0xC7 PUSH1 0x4 DUP1 CALLDATASIZE SUB PUSH1 0x40 DUP2 LT ISZERO PUSH2 0xBA JUMPI PUSH1 0x0 DUP1 REVERT JUMPDEST POP DUP1 CALLDATALOAD SWAP1 PUSH1 0x20 ADD CALLDATALOAD PUSH2 0x18F JUMP JUMPDEST PUSH1 0x40 MLOAD DUP1 DUP3 PUSH1 0x8 DUP2 GT ISZERO PUSH2 0xD7 JUMPI INVALID JUMPDEST DUP2 MSTORE PUSH1 0x20 ADD SWAP2 POP POP PUSH1 0x40 MLOAD DUP1 SWAP2 SUB SWAP1 RETURN JUMPDEST PUSH2 0x92 PUSH1 0x4 DUP1 CALLDATASIZE SUB PUSH1 0x40 DUP2 LT ISZERO PUSH2 0xFE JUMPI PUSH1 0x0 DUP1 REVERT JUMPDEST POP DUP1 CALLDATALOAD SWAP1 PUSH1 0x20 ADD CALLDATALOAD PUSH1 0xFF AND PUSH2 0x19B JUMP JUMPDEST PUSH2 0x92 PUSH1 0x4 DUP1 CALLDATASIZE SUB PUSH1 0x80 DUP2 LT ISZERO PUSH2 0x124 JUMPI PUSH1 0x0 DUP1 REVERT JUMPDEST POP DUP1 CALLDATALOAD SWAP1 PUSH1 0xFF PUSH1 0x20 DUP3 ADD CALLDATALOAD DUP2 AND SWAP2 PUSH1 0x40 DUP2 ADD CALLDATALOAD SWAP1 SWAP2 AND SWAP1 PUSH1 0x60 ADD CALLDATALOAD PUSH2 0x1A7 JUMP JUMPDEST PUSH2 0x92 PUSH1 0x4 DUP1 CALLDATASIZE SUB PUSH1 0x80 DUP2 LT ISZERO PUSH2 0x15A JUMPI PUSH1 0x0 DUP1 REVERT JUMPDEST POP DUP1 CALLDATALOAD SWAP1 PUSH1 0xFF PUSH1 0x20 DUP3 ADD CALLDATALOAD DUP2 AND SWAP2 PUSH1 0x40 DUP2 ADD CALLDATALOAD SWAP1 SWAP2 AND SWAP1 PUSH1 0x60 ADD CALLDATALOAD PUSH2 0x1BE JUMP JUMPDEST PUSH1 0x0 PUSH2 0x186 DUP4 DUP4 PUSH2 0x1CC JUMP JUMPDEST SWAP1 POP JUMPDEST SWAP3 SWAP2 POP POP JUMP JUMPDEST PUSH1 0x0 PUSH2 0x186 DUP4 DUP4 PUSH2 0x212 JUMP JUMPDEST PUSH1 0x0 PUSH2 0x186 DUP4 DUP4 PUSH2 0x25D JUMP JUMPDEST PUSH1 0x0 PUSH2 0x1B5 DUP6 DUP6 DUP6 DUP6 PUSH2 0x2A3 JUMP JUMPDEST SWAP6 SWAP5 POP POP POP POP POP JUMP JUMPDEST PUSH1 0x0 PUSH2 0x1B5 DUP6 DUP6 DUP6 DUP6 PUSH2 0x2F5 JUMP JUMPDEST PUSH1 0x0 DUP1 DUP3 PUSH1 0x8 DUP2 GT ISZERO PUSH2 0x1DB JUMPI INVALID JUMPDEST EQ ISZERO PUSH2 0x1E9 JUMPI POP PUSH1 0x0 PUSH2 0x189 JUMP JUMPDEST PUSH1 0x0 PUSH1 0x1 DUP4 PUSH1 0x8 DUP2 GT ISZERO PUSH2 0x1F9 JUMPI INVALID JUMPDEST SUB PUSH1 0x20 MUL SWAP1 POP DUP1 DUP5 SWAP1 SHR PUSH4 0xFFFFFFFF AND SWAP2 POP POP SWAP3 SWAP2 POP POP JUMP JUMPDEST PUSH1 0x0 DUP1 JUMPDEST PUSH1 0x8 DUP2 LT ISZERO PUSH2 0x255 JUMPI DUP3 PUSH4 0xFFFFFFFF AND DUP2 PUSH1 0x20 MUL DUP6 SWAP1 SHR PUSH4 0xFFFFFFFF AND GT ISZERO PUSH2 0x24D JUMPI DUP1 PUSH1 0x8 DUP2 GT ISZERO PUSH2 0x245 JUMPI INVALID JUMPDEST SWAP2 POP POP PUSH2 0x189 JUMP JUMPDEST PUSH1 0x1 ADD PUSH2 0x216 JUMP JUMPDEST POP PUSH1 0x8 PUSH2 0x186 JUMP JUMPDEST PUSH1 0x0 DUP1 DUP3 PUSH1 0x8 DUP2 GT ISZERO PUSH2 0x26C JUMPI INVALID JUMPDEST PUSH32 0xFFFFFFFFFFFFFFFFFFFFFFFFFFFFFFFFFFFFFFFFFFFFFFFFFFFFFFFFFFFFFFFF PUSH1 0x20 SWAP2 SWAP1 SWAP2 MUL SWAP1 DUP2 SHR SWAP1 SHL DUP5 OR SWAP2 POP POP SWAP3 SWAP2 POP POP JUMP JUMPDEST PUSH1 0x0 DUP1 PUSH1 0x0 DUP6 PUSH1 0x8 DUP2 GT ISZERO PUSH2 0x2B4 JUMPI INVALID JUMPDEST SWAP1 POP JUMPDEST DUP5 PUSH1 0x8 DUP2 GT ISZERO PUSH2 0x2C3 JUMPI INVALID JUMPDEST DUP2 LT ISZERO PUSH2 0x2EA JUMPI PUSH4 0xFFFFFFFF PUSH1 0x20 DUP3 MUL SWAP1 DUP2 SHL NOT SWAP8 SWAP1 SWAP8 AND DUP5 DUP9 SHL OR SWAP7 SWAP2 POP PUSH1 0x1 ADD PUSH2 0x2B7 JUMP JUMPDEST POP SWAP5 SWAP6 SWAP5 POP POP POP POP POP JUMP JUMPDEST PUSH1 0x0 DUP4 PUSH1 0x8 DUP2 GT ISZERO PUSH2 0x303 JUMPI INVALID JUMPDEST DUP4 PUSH1 0x8 DUP2 GT ISZERO PUSH2 0x30F JUMPI INVALID JUMPDEST LT PUSH2 0x325 JUMPI PUSH2 0x320 DUP6 DUP6 DUP6 DUP6 PUSH2 0x2A3 JUMP JUMPDEST PUSH2 0x1B5 JUMP JUMPDEST PUSH2 0x1B5 DUP6 DUP5 PUSH2 0x25D JUMP INVALID LOG2 PUSH5 0x6970667358 0x22 SLT KECCAK256 DIFFICULTY SWAP8 SWAP8 PUSH15 0xAE7EA92E8C77B2315CF6472CFE4B5 0xD9 0xB9 BLOCKHASH RETURNDATACOPY NOT GASLIMIT 0xCA EXTCODECOPY STATICCALL PUSH7 0x92EA2D64736F6C PUSH4 0x4300060C STOP CALLER "
        },
        "methodIdentifiers": {
          "tierAtBlockFromReport(uint256,uint256)": "6ed9558d",
          "tierBlock(uint256,uint8)": "0e47450b",
          "truncateTiersAbove(uint256,uint8)": "7c76a2fb",
          "updateBlocksForTierRange(uint256,uint8,uint8,uint256)": "d37fc68a",
          "updateReportWithTierAtBlock(uint256,uint8,uint8,uint256)": "d4707031"
        }
      }
    }
  }
}