{
  "contracts/tier/ERC20TransferTier.sol": {
    "ERC20TransferTier": {
      "abi": [
        {
          "inputs": [
            {
              "internalType": "contract IERC20",
              "name": "erc20_",
              "type": "address"
            },
            {
              "internalType": "uint256[8]",
              "name": "tierValues_",
              "type": "uint256[8]"
            }
          ],
          "stateMutability": "nonpayable",
          "type": "constructor"
        },
        {
          "anonymous": false,
          "inputs": [
            {
              "indexed": true,
              "internalType": "address",
              "name": "account",
              "type": "address"
            },
            {
              "indexed": true,
              "internalType": "enum ITier.Tier",
              "name": "startTier",
              "type": "uint8"
            },
            {
              "indexed": true,
              "internalType": "enum ITier.Tier",
              "name": "endTier",
              "type": "uint8"
            }
          ],
          "name": "TierChange",
          "type": "event"
        },
        {
          "inputs": [],
          "name": "erc20",
          "outputs": [
            {
              "internalType": "contract IERC20",
              "name": "",
              "type": "address"
            }
          ],
          "stateMutability": "view",
          "type": "function"
        },
        {
          "inputs": [
            {
              "internalType": "address",
              "name": "account_",
              "type": "address"
            }
          ],
          "name": "report",
          "outputs": [
            {
              "internalType": "uint256",
              "name": "",
              "type": "uint256"
            }
          ],
          "stateMutability": "view",
          "type": "function"
        },
        {
          "inputs": [
            {
              "internalType": "address",
              "name": "",
              "type": "address"
            }
          ],
          "name": "reports",
          "outputs": [
            {
              "internalType": "uint256",
              "name": "",
              "type": "uint256"
            }
          ],
          "stateMutability": "view",
          "type": "function"
        },
        {
          "inputs": [
            {
              "internalType": "address",
              "name": "account_",
              "type": "address"
            },
            {
              "internalType": "enum ITier.Tier",
              "name": "endTier_",
              "type": "uint8"
            },
            {
              "internalType": "bytes",
              "name": "data_",
              "type": "bytes"
            }
          ],
          "name": "setTier",
          "outputs": [],
          "stateMutability": "nonpayable",
          "type": "function"
        },
        {
          "inputs": [],
          "name": "tierValues",
          "outputs": [
            {
              "internalType": "uint256[8]",
              "name": "tierValues_",
              "type": "uint256[8]"
            }
          ],
          "stateMutability": "view",
          "type": "function"
        }
      ],
      "evm": {
        "bytecode": {
          "linkReferences": {},
          "object": "6101a060405234801561001157600080fd5b50604051610edd380380610edd833981810160405261012081101561003557600080fd5b50805160208201516080818152604084015160a081815260608087015160c08181529488015160e081815293890151610100818152968a0151610120819052948a015161014081905296909901516101608190529288901b6001600160601b031916610180529597939690959491906001600160a01b0316610ddf6100fe600039806104a352806106cb528061071d52508061047a52508061045452508061042e5250806104085250806103e25250806103bc5250806103965250806103735250610ddf6000f3fe608060405234801561001057600080fd5b50600436106100675760003560e01c806370230b391161005057806370230b391461017e578063785e9e86146101bf578063e053ea31146101f057610067565b8063252210e31461006c57806352dab69d146100b1575b600080fd5b61009f6004803603602081101561008257600080fd5b503573ffffffffffffffffffffffffffffffffffffffff16610223565b60408051918252519081900360200190f35b61017c600480360360608110156100c757600080fd5b73ffffffffffffffffffffffffffffffffffffffff8235169160ff6020820135169181019060608101604082013564010000000081111561010757600080fd5b82018360208201111561011957600080fd5b8035906020019184600183028401116401000000008311171561013b57600080fd5b91908080601f016020809104026020016040519081016040528093929190818152602001838380828437600092019190915250929550610235945050505050565b005b610186610369565b604051808261010080838360005b838110156101ac578181015183820152602001610194565b5050505090500191505060405180910390f35b6101c76104a1565b6040805173ffffffffffffffffffffffffffffffffffffffff9092168252519081900360200190f35b61009f6004803603602081101561020657600080fd5b503573ffffffffffffffffffffffffffffffffffffffff166104c5565b60006020819052908152604090205481565b600082600881111561024357fe5b14156102b057604080517f08c379a000000000000000000000000000000000000000000000000000000000815260206004820152600d60248201527f5345545f5a45524f5f5449455200000000000000000000000000000000000000604482015290519081900360640190fd5b60006102bb846104c5565b905060006102c98243610542565b90506102d78282864361058f565b73ffffffffffffffffffffffffffffffffffffffff861660009081526020819052604090205583600881111561030957fe5b81600881111561031557fe5b60405173ffffffffffffffffffffffffffffffffffffffff8816907fc47100edc32c382b56a1def2d144f6ab67d8f50be6efa18b329d2e82ee875db290600090a4610362858286866105d2565b5050505050565b610371610d3a565b7f000000000000000000000000000000000000000000000000000000000000000081527f000000000000000000000000000000000000000000000000000000000000000060208201527f000000000000000000000000000000000000000000000000000000000000000060408201527f000000000000000000000000000000000000000000000000000000000000000060608201527f000000000000000000000000000000000000000000000000000000000000000060808201527f000000000000000000000000000000000000000000000000000000000000000060a08201527f000000000000000000000000000000000000000000000000000000000000000060c08201527f000000000000000000000000000000000000000000000000000000000000000060e082015290565b7f000000000000000000000000000000000000000000000000000000000000000081565b73ffffffffffffffffffffffffffffffffffffffff8116600090815260208190526040812054610515577fffffffffffffffffffffffffffffffffffffffffffffffffffffffffffffffff61053c565b73ffffffffffffffffffffffffffffffffffffffff82166000908152602081905260409020545b92915050565b6000805b6008811015610585578263ffffffff168160200285901c63ffffffff16111561057d5780600881111561057557fe5b91505061053c565b600101610546565b5060089392505050565b600083600881111561059d57fe5b8360088111156105a957fe5b106105bf576105ba8585858561074d565b6105c9565b6105c9858461079f565b95945050505050565b8260088111156105de57fe5b8260088111156105ea57fe5b1015610674573373ffffffffffffffffffffffffffffffffffffffff85161461067457604080517f08c379a000000000000000000000000000000000000000000000000000000000815260206004820152601360248201527f44454c4547415445445f544945525f4c4f535300000000000000000000000000604482015290519081900360640190fd5b600061067f846107e5565b9050600061068c846107e5565b90508181141561069d575050610747565b818111156106f8576106f333306106b4848661082c565b73ffffffffffffffffffffffffffffffffffffffff7f0000000000000000000000000000000000000000000000000000000000000000169291906108a3565b610744565b61074486610706848461082c565b73ffffffffffffffffffffffffffffffffffffffff7f0000000000000000000000000000000000000000000000000000000000000000169190610938565b50505b50505050565b600080600085600881111561075e57fe5b90505b84600881111561076d57fe5b8110156107945763ffffffff6020820290811b199790971684881b17969150600101610761565b509495945050505050565b6000808260088111156107ae57fe5b7fffffffffffffffffffffffffffffffffffffffffffffffffffffffffffffffff60209190910290811c901b841791505092915050565b6000808260088111156107f457fe5b1161080057600061053c565b610808610369565b600183600881111561081657fe5b036008811061082157fe5b602002015192915050565b60008282111561089d57604080517f08c379a000000000000000000000000000000000000000000000000000000000815260206004820152601e60248201527f536166654d6174683a207375627472616374696f6e206f766572666c6f770000604482015290519081900360640190fd5b50900390565b6040805173ffffffffffffffffffffffffffffffffffffffff80861660248301528416604482015260648082018490528251808303909101815260849091019091526020810180517bffffffffffffffffffffffffffffffffffffffffffffffffffffffff167f23b872dd000000000000000000000000000000000000000000000000000000001790526107479085906109ca565b6040805173ffffffffffffffffffffffffffffffffffffffff8416602482015260448082018490528251808303909101815260649091019091526020810180517bffffffffffffffffffffffffffffffffffffffffffffffffffffffff167fa9059cbb000000000000000000000000000000000000000000000000000000001790526109c59084906109ca565b505050565b6060610a2c826040518060400160405280602081526020017f5361666545524332303a206c6f772d6c6576656c2063616c6c206661696c65648152508573ffffffffffffffffffffffffffffffffffffffff16610aa29092919063ffffffff16565b8051909150156109c557808060200190516020811015610a4b57600080fd5b50516109c5576040517f08c379a000000000000000000000000000000000000000000000000000000000815260040180806020018281038252602a815260200180610d80602a913960400191505060405180910390fd5b6060610ab18484600085610abb565b90505b9392505050565b606082471015610b16576040517f08c379a0000000000000000000000000000000000000000000000000000000008152600401808060200182810382526026815260200180610d5a6026913960400191505060405180910390fd5b610b1f85610c76565b610b8a57604080517f08c379a000000000000000000000000000000000000000000000000000000000815260206004820152601d60248201527f416464726573733a2063616c6c20746f206e6f6e2d636f6e7472616374000000604482015290519081900360640190fd5b600060608673ffffffffffffffffffffffffffffffffffffffff1685876040518082805190602001908083835b60208310610bf457805182527fffffffffffffffffffffffffffffffffffffffffffffffffffffffffffffffe09092019160209182019101610bb7565b6001836020036101000a03801982511681845116808217855250505050505090500191505060006040518083038185875af1925050503d8060008114610c56576040519150601f19603f3d011682016040523d82523d6000602084013e610c5b565b606091505b5091509150610c6b828286610c7c565b979650505050505050565b3b151590565b60608315610c8b575081610ab4565b825115610c9b5782518084602001fd5b816040517f08c379a00000000000000000000000000000000000000000000000000000000081526004018080602001828103825283818151815260200191508051906020019080838360005b83811015610cff578181015183820152602001610ce7565b50505050905090810190601f168015610d2c5780820380516001836020036101000a031916815260200191505b509250505060405180910390fd5b604051806101000160405280600890602082028036833750919291505056fe416464726573733a20696e73756666696369656e742062616c616e636520666f722063616c6c5361666545524332303a204552433230206f7065726174696f6e20646964206e6f742073756363656564a26469706673582212205beb75851cd2f189fe99a60865626d5e4ad46d8aec26ba98dd3b7b12a9170e5a64736f6c634300060c0033",
          "opcodes": "PUSH2 0x1A0 PUSH1 0x40 MSTORE CALLVALUE DUP1 ISZERO PUSH2 0x11 JUMPI PUSH1 0x0 DUP1 REVERT JUMPDEST POP PUSH1 0x40 MLOAD PUSH2 0xEDD CODESIZE SUB DUP1 PUSH2 0xEDD DUP4 CODECOPY DUP2 DUP2 ADD PUSH1 0x40 MSTORE PUSH2 0x120 DUP2 LT ISZERO PUSH2 0x35 JUMPI PUSH1 0x0 DUP1 REVERT JUMPDEST POP DUP1 MLOAD PUSH1 0x20 DUP3 ADD MLOAD PUSH1 0x80 DUP2 DUP2 MSTORE PUSH1 0x40 DUP5 ADD MLOAD PUSH1 0xA0 DUP2 DUP2 MSTORE PUSH1 0x60 DUP1 DUP8 ADD MLOAD PUSH1 0xC0 DUP2 DUP2 MSTORE SWAP5 DUP9 ADD MLOAD PUSH1 0xE0 DUP2 DUP2 MSTORE SWAP4 DUP10 ADD MLOAD PUSH2 0x100 DUP2 DUP2 MSTORE SWAP7 DUP11 ADD MLOAD PUSH2 0x120 DUP2 SWAP1 MSTORE SWAP5 DUP11 ADD MLOAD PUSH2 0x140 DUP2 SWAP1 MSTORE SWAP7 SWAP1 SWAP10 ADD MLOAD PUSH2 0x160 DUP2 SWAP1 MSTORE SWAP3 DUP9 SWAP1 SHL PUSH1 0x1 PUSH1 0x1 PUSH1 0x60 SHL SUB NOT AND PUSH2 0x180 MSTORE SWAP6 SWAP8 SWAP4 SWAP7 SWAP1 SWAP6 SWAP5 SWAP2 SWAP1 PUSH1 0x1 PUSH1 0x1 PUSH1 0xA0 SHL SUB AND PUSH2 0xDDF PUSH2 0xFE PUSH1 0x0 CODECOPY DUP1 PUSH2 0x4A3 MSTORE DUP1 PUSH2 0x6CB MSTORE DUP1 PUSH2 0x71D MSTORE POP DUP1 PUSH2 0x47A MSTORE POP DUP1 PUSH2 0x454 MSTORE POP DUP1 PUSH2 0x42E MSTORE POP DUP1 PUSH2 0x408 MSTORE POP DUP1 PUSH2 0x3E2 MSTORE POP DUP1 PUSH2 0x3BC MSTORE POP DUP1 PUSH2 0x396 MSTORE POP DUP1 PUSH2 0x373 MSTORE POP PUSH2 0xDDF PUSH1 0x0 RETURN INVALID PUSH1 0x80 PUSH1 0x40 MSTORE CALLVALUE DUP1 ISZERO PUSH2 0x10 JUMPI PUSH1 0x0 DUP1 REVERT JUMPDEST POP PUSH1 0x4 CALLDATASIZE LT PUSH2 0x67 JUMPI PUSH1 0x0 CALLDATALOAD PUSH1 0xE0 SHR DUP1 PUSH4 0x70230B39 GT PUSH2 0x50 JUMPI DUP1 PUSH4 0x70230B39 EQ PUSH2 0x17E JUMPI DUP1 PUSH4 0x785E9E86 EQ PUSH2 0x1BF JUMPI DUP1 PUSH4 0xE053EA31 EQ PUSH2 0x1F0 JUMPI PUSH2 0x67 JUMP JUMPDEST DUP1 PUSH4 0x252210E3 EQ PUSH2 0x6C JUMPI DUP1 PUSH4 0x52DAB69D EQ PUSH2 0xB1 JUMPI JUMPDEST PUSH1 0x0 DUP1 REVERT JUMPDEST PUSH2 0x9F PUSH1 0x4 DUP1 CALLDATASIZE SUB PUSH1 0x20 DUP2 LT ISZERO PUSH2 0x82 JUMPI PUSH1 0x0 DUP1 REVERT JUMPDEST POP CALLDATALOAD PUSH20 0xFFFFFFFFFFFFFFFFFFFFFFFFFFFFFFFFFFFFFFFF AND PUSH2 0x223 JUMP JUMPDEST PUSH1 0x40 DUP1 MLOAD SWAP2 DUP3 MSTORE MLOAD SWAP1 DUP2 SWAP1 SUB PUSH1 0x20 ADD SWAP1 RETURN JUMPDEST PUSH2 0x17C PUSH1 0x4 DUP1 CALLDATASIZE SUB PUSH1 0x60 DUP2 LT ISZERO PUSH2 0xC7 JUMPI PUSH1 0x0 DUP1 REVERT JUMPDEST PUSH20 0xFFFFFFFFFFFFFFFFFFFFFFFFFFFFFFFFFFFFFFFF DUP3 CALLDATALOAD AND SWAP2 PUSH1 0xFF PUSH1 0x20 DUP3 ADD CALLDATALOAD AND SWAP2 DUP2 ADD SWAP1 PUSH1 0x60 DUP2 ADD PUSH1 0x40 DUP3 ADD CALLDATALOAD PUSH5 0x100000000 DUP2 GT ISZERO PUSH2 0x107 JUMPI PUSH1 0x0 DUP1 REVERT JUMPDEST DUP3 ADD DUP4 PUSH1 0x20 DUP3 ADD GT ISZERO PUSH2 0x119 JUMPI PUSH1 0x0 DUP1 REVERT JUMPDEST DUP1 CALLDATALOAD SWAP1 PUSH1 0x20 ADD SWAP2 DUP5 PUSH1 0x1 DUP4 MUL DUP5 ADD GT PUSH5 0x100000000 DUP4 GT OR ISZERO PUSH2 0x13B JUMPI PUSH1 0x0 DUP1 REVERT JUMPDEST SWAP2 SWAP1 DUP1 DUP1 PUSH1 0x1F ADD PUSH1 0x20 DUP1 SWAP2 DIV MUL PUSH1 0x20 ADD PUSH1 0x40 MLOAD SWAP1 DUP2 ADD PUSH1 0x40 MSTORE DUP1 SWAP4 SWAP3 SWAP2 SWAP1 DUP2 DUP2 MSTORE PUSH1 0x20 ADD DUP4 DUP4 DUP1 DUP3 DUP5 CALLDATACOPY PUSH1 0x0 SWAP3 ADD SWAP2 SWAP1 SWAP2 MSTORE POP SWAP3 SWAP6 POP PUSH2 0x235 SWAP5 POP POP POP POP POP JUMP JUMPDEST STOP JUMPDEST PUSH2 0x186 PUSH2 0x369 JUMP JUMPDEST PUSH1 0x40 MLOAD DUP1 DUP3 PUSH2 0x100 DUP1 DUP4 DUP4 PUSH1 0x0 JUMPDEST DUP4 DUP2 LT ISZERO PUSH2 0x1AC JUMPI DUP2 DUP2 ADD MLOAD DUP4 DUP3 ADD MSTORE PUSH1 0x20 ADD PUSH2 0x194 JUMP JUMPDEST POP POP POP POP SWAP1 POP ADD SWAP2 POP POP PUSH1 0x40 MLOAD DUP1 SWAP2 SUB SWAP1 RETURN JUMPDEST PUSH2 0x1C7 PUSH2 0x4A1 JUMP JUMPDEST PUSH1 0x40 DUP1 MLOAD PUSH20 0xFFFFFFFFFFFFFFFFFFFFFFFFFFFFFFFFFFFFFFFF SWAP1 SWAP3 AND DUP3 MSTORE MLOAD SWAP1 DUP2 SWAP1 SUB PUSH1 0x20 ADD SWAP1 RETURN JUMPDEST PUSH2 0x9F PUSH1 0x4 DUP1 CALLDATASIZE SUB PUSH1 0x20 DUP2 LT ISZERO PUSH2 0x206 JUMPI PUSH1 0x0 DUP1 REVERT JUMPDEST POP CALLDATALOAD PUSH20 0xFFFFFFFFFFFFFFFFFFFFFFFFFFFFFFFFFFFFFFFF AND PUSH2 0x4C5 JUMP JUMPDEST PUSH1 0x0 PUSH1 0x20 DUP2 SWAP1 MSTORE SWAP1 DUP2 MSTORE PUSH1 0x40 SWAP1 KECCAK256 SLOAD DUP2 JUMP JUMPDEST PUSH1 0x0 DUP3 PUSH1 0x8 DUP2 GT ISZERO PUSH2 0x243 JUMPI INVALID JUMPDEST EQ ISZERO PUSH2 0x2B0 JUMPI PUSH1 0x40 DUP1 MLOAD PUSH32 0x8C379A000000000000000000000000000000000000000000000000000000000 DUP2 MSTORE PUSH1 0x20 PUSH1 0x4 DUP3 ADD MSTORE PUSH1 0xD PUSH1 0x24 DUP3 ADD MSTORE PUSH32 0x5345545F5A45524F5F5449455200000000000000000000000000000000000000 PUSH1 0x44 DUP3 ADD MSTORE SWAP1 MLOAD SWAP1 DUP2 SWAP1 SUB PUSH1 0x64 ADD SWAP1 REVERT JUMPDEST PUSH1 0x0 PUSH2 0x2BB DUP5 PUSH2 0x4C5 JUMP JUMPDEST SWAP1 POP PUSH1 0x0 PUSH2 0x2C9 DUP3 NUMBER PUSH2 0x542 JUMP JUMPDEST SWAP1 POP PUSH2 0x2D7 DUP3 DUP3 DUP7 NUMBER PUSH2 0x58F JUMP JUMPDEST PUSH20 0xFFFFFFFFFFFFFFFFFFFFFFFFFFFFFFFFFFFFFFFF DUP7 AND PUSH1 0x0 SWAP1 DUP2 MSTORE PUSH1 0x20 DUP2 SWAP1 MSTORE PUSH1 0x40 SWAP1 KECCAK256 SSTORE DUP4 PUSH1 0x8 DUP2 GT ISZERO PUSH2 0x309 JUMPI INVALID JUMPDEST DUP2 PUSH1 0x8 DUP2 GT ISZERO PUSH2 0x315 JUMPI INVALID JUMPDEST PUSH1 0x40 MLOAD PUSH20 0xFFFFFFFFFFFFFFFFFFFFFFFFFFFFFFFFFFFFFFFF DUP9 AND SWAP1 PUSH32 0xC47100EDC32C382B56A1DEF2D144F6AB67D8F50BE6EFA18B329D2E82EE875DB2 SWAP1 PUSH1 0x0 SWAP1 LOG4 PUSH2 0x362 DUP6 DUP3 DUP7 DUP7 PUSH2 0x5D2 JUMP JUMPDEST POP POP POP POP POP JUMP JUMPDEST PUSH2 0x371 PUSH2 0xD3A JUMP JUMPDEST PUSH32 0x0 DUP2 MSTORE PUSH32 0x0 PUSH1 0x20 DUP3 ADD MSTORE PUSH32 0x0 PUSH1 0x40 DUP3 ADD MSTORE PUSH32 0x0 PUSH1 0x60 DUP3 ADD MSTORE PUSH32 0x0 PUSH1 0x80 DUP3 ADD MSTORE PUSH32 0x0 PUSH1 0xA0 DUP3 ADD MSTORE PUSH32 0x0 PUSH1 0xC0 DUP3 ADD MSTORE PUSH32 0x0 PUSH1 0xE0 DUP3 ADD MSTORE SWAP1 JUMP JUMPDEST PUSH32 0x0 DUP2 JUMP JUMPDEST PUSH20 0xFFFFFFFFFFFFFFFFFFFFFFFFFFFFFFFFFFFFFFFF DUP2 AND PUSH1 0x0 SWAP1 DUP2 MSTORE PUSH1 0x20 DUP2 SWAP1 MSTORE PUSH1 0x40 DUP2 KECCAK256 SLOAD PUSH2 0x515 JUMPI PUSH32 0xFFFFFFFFFFFFFFFFFFFFFFFFFFFFFFFFFFFFFFFFFFFFFFFFFFFFFFFFFFFFFFFF PUSH2 0x53C JUMP JUMPDEST PUSH20 0xFFFFFFFFFFFFFFFFFFFFFFFFFFFFFFFFFFFFFFFF DUP3 AND PUSH1 0x0 SWAP1 DUP2 MSTORE PUSH1 0x20 DUP2 SWAP1 MSTORE PUSH1 0x40 SWAP1 KECCAK256 SLOAD JUMPDEST SWAP3 SWAP2 POP POP JUMP JUMPDEST PUSH1 0x0 DUP1 JUMPDEST PUSH1 0x8 DUP2 LT ISZERO PUSH2 0x585 JUMPI DUP3 PUSH4 0xFFFFFFFF AND DUP2 PUSH1 0x20 MUL DUP6 SWAP1 SHR PUSH4 0xFFFFFFFF AND GT ISZERO PUSH2 0x57D JUMPI DUP1 PUSH1 0x8 DUP2 GT ISZERO PUSH2 0x575 JUMPI INVALID JUMPDEST SWAP2 POP POP PUSH2 0x53C JUMP JUMPDEST PUSH1 0x1 ADD PUSH2 0x546 JUMP JUMPDEST POP PUSH1 0x8 SWAP4 SWAP3 POP POP POP JUMP JUMPDEST PUSH1 0x0 DUP4 PUSH1 0x8 DUP2 GT ISZERO PUSH2 0x59D JUMPI INVALID JUMPDEST DUP4 PUSH1 0x8 DUP2 GT ISZERO PUSH2 0x5A9 JUMPI INVALID JUMPDEST LT PUSH2 0x5BF JUMPI PUSH2 0x5BA DUP6 DUP6 DUP6 DUP6 PUSH2 0x74D JUMP JUMPDEST PUSH2 0x5C9 JUMP JUMPDEST PUSH2 0x5C9 DUP6 DUP5 PUSH2 0x79F JUMP JUMPDEST SWAP6 SWAP5 POP POP POP POP POP JUMP JUMPDEST DUP3 PUSH1 0x8 DUP2 GT ISZERO PUSH2 0x5DE JUMPI INVALID JUMPDEST DUP3 PUSH1 0x8 DUP2 GT ISZERO PUSH2 0x5EA JUMPI INVALID JUMPDEST LT ISZERO PUSH2 0x674 JUMPI CALLER PUSH20 0xFFFFFFFFFFFFFFFFFFFFFFFFFFFFFFFFFFFFFFFF DUP6 AND EQ PUSH2 0x674 JUMPI PUSH1 0x40 DUP1 MLOAD PUSH32 0x8C379A000000000000000000000000000000000000000000000000000000000 DUP2 MSTORE PUSH1 0x20 PUSH1 0x4 DUP3 ADD MSTORE PUSH1 0x13 PUSH1 0x24 DUP3 ADD MSTORE PUSH32 0x44454C4547415445445F544945525F4C4F535300000000000000000000000000 PUSH1 0x44 DUP3 ADD MSTORE SWAP1 MLOAD SWAP1 DUP2 SWAP1 SUB PUSH1 0x64 ADD SWAP1 REVERT JUMPDEST PUSH1 0x0 PUSH2 0x67F DUP5 PUSH2 0x7E5 JUMP JUMPDEST SWAP1 POP PUSH1 0x0 PUSH2 0x68C DUP5 PUSH2 0x7E5 JUMP JUMPDEST SWAP1 POP DUP2 DUP2 EQ ISZERO PUSH2 0x69D JUMPI POP POP PUSH2 0x747 JUMP JUMPDEST DUP2 DUP2 GT ISZERO PUSH2 0x6F8 JUMPI PUSH2 0x6F3 CALLER ADDRESS PUSH2 0x6B4 DUP5 DUP7 PUSH2 0x82C JUMP JUMPDEST PUSH20 0xFFFFFFFFFFFFFFFFFFFFFFFFFFFFFFFFFFFFFFFF PUSH32 0x0 AND SWAP3 SWAP2 SWAP1 PUSH2 0x8A3 JUMP JUMPDEST PUSH2 0x744 JUMP JUMPDEST PUSH2 0x744 DUP7 PUSH2 0x706 DUP5 DUP5 PUSH2 0x82C JUMP JUMPDEST PUSH20 0xFFFFFFFFFFFFFFFFFFFFFFFFFFFFFFFFFFFFFFFF PUSH32 0x0 AND SWAP2 SWAP1 PUSH2 0x938 JUMP JUMPDEST POP POP JUMPDEST POP POP POP POP JUMP JUMPDEST PUSH1 0x0 DUP1 PUSH1 0x0 DUP6 PUSH1 0x8 DUP2 GT ISZERO PUSH2 0x75E JUMPI INVALID JUMPDEST SWAP1 POP JUMPDEST DUP5 PUSH1 0x8 DUP2 GT ISZERO PUSH2 0x76D JUMPI INVALID JUMPDEST DUP2 LT ISZERO PUSH2 0x794 JUMPI PUSH4 0xFFFFFFFF PUSH1 0x20 DUP3 MUL SWAP1 DUP2 SHL NOT SWAP8 SWAP1 SWAP8 AND DUP5 DUP9 SHL OR SWAP7 SWAP2 POP PUSH1 0x1 ADD PUSH2 0x761 JUMP JUMPDEST POP SWAP5 SWAP6 SWAP5 POP POP POP POP POP JUMP JUMPDEST PUSH1 0x0 DUP1 DUP3 PUSH1 0x8 DUP2 GT ISZERO PUSH2 0x7AE JUMPI INVALID JUMPDEST PUSH32 0xFFFFFFFFFFFFFFFFFFFFFFFFFFFFFFFFFFFFFFFFFFFFFFFFFFFFFFFFFFFFFFFF PUSH1 0x20 SWAP2 SWAP1 SWAP2 MUL SWAP1 DUP2 SHR SWAP1 SHL DUP5 OR SWAP2 POP POP SWAP3 SWAP2 POP POP JUMP JUMPDEST PUSH1 0x0 DUP1 DUP3 PUSH1 0x8 DUP2 GT ISZERO PUSH2 0x7F4 JUMPI INVALID JUMPDEST GT PUSH2 0x800 JUMPI PUSH1 0x0 PUSH2 0x53C JUMP JUMPDEST PUSH2 0x808 PUSH2 0x369 JUMP JUMPDEST PUSH1 0x1 DUP4 PUSH1 0x8 DUP2 GT ISZERO PUSH2 0x816 JUMPI INVALID JUMPDEST SUB PUSH1 0x8 DUP2 LT PUSH2 0x821 JUMPI INVALID JUMPDEST PUSH1 0x20 MUL ADD MLOAD SWAP3 SWAP2 POP POP JUMP JUMPDEST PUSH1 0x0 DUP3 DUP3 GT ISZERO PUSH2 0x89D JUMPI PUSH1 0x40 DUP1 MLOAD PUSH32 0x8C379A000000000000000000000000000000000000000000000000000000000 DUP2 MSTORE PUSH1 0x20 PUSH1 0x4 DUP3 ADD MSTORE PUSH1 0x1E PUSH1 0x24 DUP3 ADD MSTORE PUSH32 0x536166654D6174683A207375627472616374696F6E206F766572666C6F770000 PUSH1 0x44 DUP3 ADD MSTORE SWAP1 MLOAD SWAP1 DUP2 SWAP1 SUB PUSH1 0x64 ADD SWAP1 REVERT JUMPDEST POP SWAP1 SUB SWAP1 JUMP JUMPDEST PUSH1 0x40 DUP1 MLOAD PUSH20 0xFFFFFFFFFFFFFFFFFFFFFFFFFFFFFFFFFFFFFFFF DUP1 DUP7 AND PUSH1 0x24 DUP4 ADD MSTORE DUP5 AND PUSH1 0x44 DUP3 ADD MSTORE PUSH1 0x64 DUP1 DUP3 ADD DUP5 SWAP1 MSTORE DUP3 MLOAD DUP1 DUP4 SUB SWAP1 SWAP2 ADD DUP2 MSTORE PUSH1 0x84 SWAP1 SWAP2 ADD SWAP1 SWAP2 MSTORE PUSH1 0x20 DUP2 ADD DUP1 MLOAD PUSH28 0xFFFFFFFFFFFFFFFFFFFFFFFFFFFFFFFFFFFFFFFFFFFFFFFFFFFFFFFF AND PUSH32 0x23B872DD00000000000000000000000000000000000000000000000000000000 OR SWAP1 MSTORE PUSH2 0x747 SWAP1 DUP6 SWAP1 PUSH2 0x9CA JUMP JUMPDEST PUSH1 0x40 DUP1 MLOAD PUSH20 0xFFFFFFFFFFFFFFFFFFFFFFFFFFFFFFFFFFFFFFFF DUP5 AND PUSH1 0x24 DUP3 ADD MSTORE PUSH1 0x44 DUP1 DUP3 ADD DUP5 SWAP1 MSTORE DUP3 MLOAD DUP1 DUP4 SUB SWAP1 SWAP2 ADD DUP2 MSTORE PUSH1 0x64 SWAP1 SWAP2 ADD SWAP1 SWAP2 MSTORE PUSH1 0x20 DUP2 ADD DUP1 MLOAD PUSH28 0xFFFFFFFFFFFFFFFFFFFFFFFFFFFFFFFFFFFFFFFFFFFFFFFFFFFFFFFF AND PUSH32 0xA9059CBB00000000000000000000000000000000000000000000000000000000 OR SWAP1 MSTORE PUSH2 0x9C5 SWAP1 DUP5 SWAP1 PUSH2 0x9CA JUMP JUMPDEST POP POP POP JUMP JUMPDEST PUSH1 0x60 PUSH2 0xA2C DUP3 PUSH1 0x40 MLOAD DUP1 PUSH1 0x40 ADD PUSH1 0x40 MSTORE DUP1 PUSH1 0x20 DUP2 MSTORE PUSH1 0x20 ADD PUSH32 0x5361666545524332303A206C6F772D6C6576656C2063616C6C206661696C6564 DUP2 MSTORE POP DUP6 PUSH20 0xFFFFFFFFFFFFFFFFFFFFFFFFFFFFFFFFFFFFFFFF AND PUSH2 0xAA2 SWAP1 SWAP3 SWAP2 SWAP1 PUSH4 0xFFFFFFFF AND JUMP JUMPDEST DUP1 MLOAD SWAP1 SWAP2 POP ISZERO PUSH2 0x9C5 JUMPI DUP1 DUP1 PUSH1 0x20 ADD SWAP1 MLOAD PUSH1 0x20 DUP2 LT ISZERO PUSH2 0xA4B JUMPI PUSH1 0x0 DUP1 REVERT JUMPDEST POP MLOAD PUSH2 0x9C5 JUMPI PUSH1 0x40 MLOAD PUSH32 0x8C379A000000000000000000000000000000000000000000000000000000000 DUP2 MSTORE PUSH1 0x4 ADD DUP1 DUP1 PUSH1 0x20 ADD DUP3 DUP2 SUB DUP3 MSTORE PUSH1 0x2A DUP2 MSTORE PUSH1 0x20 ADD DUP1 PUSH2 0xD80 PUSH1 0x2A SWAP2 CODECOPY PUSH1 0x40 ADD SWAP2 POP POP PUSH1 0x40 MLOAD DUP1 SWAP2 SUB SWAP1 REVERT JUMPDEST PUSH1 0x60 PUSH2 0xAB1 DUP5 DUP5 PUSH1 0x0 DUP6 PUSH2 0xABB JUMP JUMPDEST SWAP1 POP JUMPDEST SWAP4 SWAP3 POP POP POP JUMP JUMPDEST PUSH1 0x60 DUP3 SELFBALANCE LT ISZERO PUSH2 0xB16 JUMPI PUSH1 0x40 MLOAD PUSH32 0x8C379A000000000000000000000000000000000000000000000000000000000 DUP2 MSTORE PUSH1 0x4 ADD DUP1 DUP1 PUSH1 0x20 ADD DUP3 DUP2 SUB DUP3 MSTORE PUSH1 0x26 DUP2 MSTORE PUSH1 0x20 ADD DUP1 PUSH2 0xD5A PUSH1 0x26 SWAP2 CODECOPY PUSH1 0x40 ADD SWAP2 POP POP PUSH1 0x40 MLOAD DUP1 SWAP2 SUB SWAP1 REVERT JUMPDEST PUSH2 0xB1F DUP6 PUSH2 0xC76 JUMP JUMPDEST PUSH2 0xB8A JUMPI PUSH1 0x40 DUP1 MLOAD PUSH32 0x8C379A000000000000000000000000000000000000000000000000000000000 DUP2 MSTORE PUSH1 0x20 PUSH1 0x4 DUP3 ADD MSTORE PUSH1 0x1D PUSH1 0x24 DUP3 ADD MSTORE PUSH32 0x416464726573733A2063616C6C20746F206E6F6E2D636F6E7472616374000000 PUSH1 0x44 DUP3 ADD MSTORE SWAP1 MLOAD SWAP1 DUP2 SWAP1 SUB PUSH1 0x64 ADD SWAP1 REVERT JUMPDEST PUSH1 0x0 PUSH1 0x60 DUP7 PUSH20 0xFFFFFFFFFFFFFFFFFFFFFFFFFFFFFFFFFFFFFFFF AND DUP6 DUP8 PUSH1 0x40 MLOAD DUP1 DUP3 DUP1 MLOAD SWAP1 PUSH1 0x20 ADD SWAP1 DUP1 DUP4 DUP4 JUMPDEST PUSH1 0x20 DUP4 LT PUSH2 0xBF4 JUMPI DUP1 MLOAD DUP3 MSTORE PUSH32 0xFFFFFFFFFFFFFFFFFFFFFFFFFFFFFFFFFFFFFFFFFFFFFFFFFFFFFFFFFFFFFFE0 SWAP1 SWAP3 ADD SWAP2 PUSH1 0x20 SWAP2 DUP3 ADD SWAP2 ADD PUSH2 0xBB7 JUMP JUMPDEST PUSH1 0x1 DUP4 PUSH1 0x20 SUB PUSH2 0x100 EXP SUB DUP1 NOT DUP3 MLOAD AND DUP2 DUP5 MLOAD AND DUP1 DUP3 OR DUP6 MSTORE POP POP POP POP POP POP SWAP1 POP ADD SWAP2 POP POP PUSH1 0x0 PUSH1 0x40 MLOAD DUP1 DUP4 SUB DUP2 DUP6 DUP8 GAS CALL SWAP3 POP POP POP RETURNDATASIZE DUP1 PUSH1 0x0 DUP2 EQ PUSH2 0xC56 JUMPI PUSH1 0x40 MLOAD SWAP2 POP PUSH1 0x1F NOT PUSH1 0x3F RETURNDATASIZE ADD AND DUP3 ADD PUSH1 0x40 MSTORE RETURNDATASIZE DUP3 MSTORE RETURNDATASIZE PUSH1 0x0 PUSH1 0x20 DUP5 ADD RETURNDATACOPY PUSH2 0xC5B JUMP JUMPDEST PUSH1 0x60 SWAP2 POP JUMPDEST POP SWAP2 POP SWAP2 POP PUSH2 0xC6B DUP3 DUP3 DUP7 PUSH2 0xC7C JUMP JUMPDEST SWAP8 SWAP7 POP POP POP POP POP POP POP JUMP JUMPDEST EXTCODESIZE ISZERO ISZERO SWAP1 JUMP JUMPDEST PUSH1 0x60 DUP4 ISZERO PUSH2 0xC8B JUMPI POP DUP2 PUSH2 0xAB4 JUMP JUMPDEST DUP3 MLOAD ISZERO PUSH2 0xC9B JUMPI DUP3 MLOAD DUP1 DUP5 PUSH1 0x20 ADD REVERT JUMPDEST DUP2 PUSH1 0x40 MLOAD PUSH32 0x8C379A000000000000000000000000000000000000000000000000000000000 DUP2 MSTORE PUSH1 0x4 ADD DUP1 DUP1 PUSH1 0x20 ADD DUP3 DUP2 SUB DUP3 MSTORE DUP4 DUP2 DUP2 MLOAD DUP2 MSTORE PUSH1 0x20 ADD SWAP2 POP DUP1 MLOAD SWAP1 PUSH1 0x20 ADD SWAP1 DUP1 DUP4 DUP4 PUSH1 0x0 JUMPDEST DUP4 DUP2 LT ISZERO PUSH2 0xCFF JUMPI DUP2 DUP2 ADD MLOAD DUP4 DUP3 ADD MSTORE PUSH1 0x20 ADD PUSH2 0xCE7 JUMP JUMPDEST POP POP POP POP SWAP1 POP SWAP1 DUP2 ADD SWAP1 PUSH1 0x1F AND DUP1 ISZERO PUSH2 0xD2C JUMPI DUP1 DUP3 SUB DUP1 MLOAD PUSH1 0x1 DUP4 PUSH1 0x20 SUB PUSH2 0x100 EXP SUB NOT AND DUP2 MSTORE PUSH1 0x20 ADD SWAP2 POP JUMPDEST POP SWAP3 POP POP POP PUSH1 0x40 MLOAD DUP1 SWAP2 SUB SWAP1 REVERT JUMPDEST PUSH1 0x40 MLOAD DUP1 PUSH2 0x100 ADD PUSH1 0x40 MSTORE DUP1 PUSH1 0x8 SWAP1 PUSH1 0x20 DUP3 MUL DUP1 CALLDATASIZE DUP4 CALLDATACOPY POP SWAP2 SWAP3 SWAP2 POP POP JUMP INVALID COINBASE PUSH5 0x6472657373 GASPRICE KECCAK256 PUSH10 0x6E73756666696369656E PUSH21 0x2062616C616E636520666F722063616C6C53616665 GASLIMIT MSTORE NUMBER ORIGIN ADDRESS GASPRICE KECCAK256 GASLIMIT MSTORE NUMBER ORIGIN ADDRESS KECCAK256 PUSH16 0x7065726174696F6E20646964206E6F74 KECCAK256 PUSH20 0x756363656564A26469706673582212205BEB7585 SHR 0xD2 CALL DUP10 INVALID SWAP10 0xA6 ADDMOD PUSH6 0x626D5E4AD46D DUP11 0xEC 0x26 0xBA SWAP9 0xDD EXTCODESIZE PUSH28 0x12A9170E5A64736F6C634300060C0033000000000000000000000000 "
        },
        "methodIdentifiers": {
          "erc20()": "785e9e86",
          "report(address)": "e053ea31",
          "reports(address)": "252210e3",
          "setTier(address,uint8,bytes)": "52dab69d",
          "tierValues()": "70230b39"
        }
      }
    }
  }
}