{
  "_format": "hh-sol-artifact-1",
  "contractName": "TierUtil",
  "sourceName": "contracts/libraries/TierUtil.sol",
  "abi": [
    {
      "inputs": [],
      "name": "UNINITIALIZED",
      "outputs": [
        {
          "internalType": "uint256",
          "name": "",
          "type": "uint256"
        }
      ],
      "stateMutability": "view",
      "type": "function"
    }
  ],
  "bytecode": "0x60aa610024600b82828239805160001a607314601757fe5b30600052607381538281f3fe730000000000000000000000000000000000000000301460806040526004361060335760003560e01c806381e45d9a146038575b600080fd5b603e6050565b60408051918252519081900360200190f35b7fffffffffffffffffffffffffffffffffffffffffffffffffffffffffffffffff8156fea26469706673582212201b013e452a639532b0a2b32ecc9c03c322331562b7bc443c7dc7dc9302ad9e4164736f6c634300060c0033",
  "linkReferences": {},
  "deployedLinkReferences": {}
}