{
  "_format": "hh-sol-artifact-1",
  "contractName": "TierByConstructionTest",
  "sourceName": "contracts/test/TierByConstructionTest.sol",
  "abi": [
    {
      "inputs": [
        {
          "internalType": "contract ITier",
          "name": "tier_",
          "type": "address"
        }
      ],
      "stateMutability": "nonpayable",
      "type": "constructor"
    },
    {
      "inputs": [],
      "name": "constructionBlock",
      "outputs": [
        {
          "internalType": "uint256",
          "name": "",
          "type": "uint256"
        }
      ],
      "stateMutability": "view",
      "type": "function"
    },
    {
      "inputs": [],
      "name": "ifEight",
      "outputs": [],
      "stateMutability": "view",
      "type": "function"
    },
    {
      "inputs": [],
      "name": "ifFive",
      "outputs": [],
      "stateMutability": "view",
      "type": "function"
    },
    {
      "inputs": [],
      "name": "ifFour",
      "outputs": [],
      "stateMutability": "view",
      "type": "function"
    },
    {
      "inputs": [],
      "name": "ifOne",
      "outputs": [],
      "stateMutability": "view",
      "type": "function"
    },
    {
      "inputs": [],
      "name": "ifSeven",
      "outputs": [],
      "stateMutability": "view",
      "type": "function"
    },
    {
      "inputs": [],
      "name": "ifSix",
      "outputs": [],
      "stateMutability": "view",
      "type": "function"
    },
    {
      "inputs": [],
      "name": "ifThree",
      "outputs": [],
      "stateMutability": "view",
      "type": "function"
    },
    {
      "inputs": [],
      "name": "ifTwo",
      "outputs": [],
      "stateMutability": "view",
      "type": "function"
    },
    {
      "inputs": [],
      "name": "ifZero",
      "outputs": [],
      "stateMutability": "view",
      "type": "function"
    },
    {
      "inputs": [
        {
          "internalType": "address",
          "name": "account_",
          "type": "address"
        },
        {
          "internalType": "enum ITier.Tier",
          "name": "minimumTier_",
          "type": "uint8"
        }
      ],
      "name": "isTier",
      "outputs": [
        {
          "internalType": "bool",
          "name": "",
          "type": "bool"
        }
      ],
      "stateMutability": "view",
      "type": "function"
    },
    {
      "inputs": [],
      "name": "tierContract",
      "outputs": [
        {
          "internalType": "contract ITier",
          "name": "",
          "type": "address"
        }
      ],
      "stateMutability": "view",
      "type": "function"
    },
    {
      "inputs": [],
      "name": "unlimited",
      "outputs": [],
      "stateMutability": "view",
      "type": "function"
    }
  ],
  "bytecode": "0x60c060405234801561001057600080fd5b506040516104dd3803806104dd8339818101604052602081101561003357600080fd5b50516001600160601b031960609190911b166080524360a05260805160601c60a05161046161007c600039806101d3528061035452508061029b528061039a52506104616000f3fe608060405234801561001057600080fd5b50600436106100df5760003560e01c80637922deb51161008c578063cb457d4711610066578063cb457d47146101b1578063d1abd2de146101b9578063d78aafde146101c1578063e149ceb5146101c9576100df565b80637922deb5146101705780637bcd3dc514610178578063a30872db14610180576100df565b80636bdfcec6116100bd5780636bdfcec61461011057806375bf27871461011857806377544f3314610120576100df565b80630f0af57f146100e45780631fb3d151146100fe5780633f15225114610108575b600080fd5b6100ec6101d1565b60408051918252519081900360200190f35b6101066101f5565b005b610106610271565b61010661027e565b61010661028b565b61015c6004803603604081101561013657600080fd5b50803573ffffffffffffffffffffffffffffffffffffffff16906020013560ff16610294565b604080519115158252519081900360200190f35b61010661037e565b61010661038b565b610188610398565b6040805173ffffffffffffffffffffffffffffffffffffffff9092168252519081900360200190f35b6101066103bc565b6101066103be565b6101066103cb565b6101066103d8565b7f000000000000000000000000000000000000000000000000000000000000000081565b3360086102028282610294565b61026d57604080517f08c379a000000000000000000000000000000000000000000000000000000000815260206004820152600c60248201527f4d494e494d554d5f544945520000000000000000000000000000000000000000604482015290519081900360640190fd5b5050565b3360046102028282610294565b3360066102028282610294565b33600361020282825b60006103527f000000000000000000000000000000000000000000000000000000000000000073ffffffffffffffffffffffffffffffffffffffff1663e053ea31856040518263ffffffff1660e01b8152600401808273ffffffffffffffffffffffffffffffffffffffff16815260200191505060206040518083038186803b15801561032057600080fd5b505afa158015610334573d6000803e3d6000fd5b505050506040513d602081101561034a57600080fd5b5051836103e5565b7f0000000000000000000000000000000000000000000000000000000000000000101590505b92915050565b3360076102028282610294565b3360006102028282610294565b7f000000000000000000000000000000000000000000000000000000000000000081565b565b3360016102028282610294565b3360056102028282610294565b3360026102028282610294565b6000808260088111156103f457fe5b141561040257506000610378565b6000600183600881111561041257fe5b0360200290508084901c63ffffffff169150509291505056fea264697066735822122023adae5be213cba6911641a378158ba831ad81a6bf74a194ac2c2832491dba0a64736f6c634300060c0033",
  "linkReferences": {},
  "deployedLinkReferences": {}
}